{
  "_format": "hh-sol-artifact-1",
  "contractName": "House",
  "sourceName": "contracts/House.sol",
  "abi": [
    {
      "inputs": [],
      "stateMutability": "nonpayable",
      "type": "constructor"
    },
    {
      "anonymous": false,
      "inputs": [
        {
          "indexed": true,
          "internalType": "address",
          "name": "owner",
          "type": "address"
        },
        {
          "indexed": true,
          "internalType": "address",
          "name": "approved",
          "type": "address"
        },
        {
          "indexed": true,
          "internalType": "uint256",
          "name": "tokenId",
          "type": "uint256"
        }
      ],
      "name": "Approval",
      "type": "event"
    },
    {
      "anonymous": false,
      "inputs": [
        {
          "indexed": true,
          "internalType": "address",
          "name": "owner",
          "type": "address"
        },
        {
          "indexed": true,
          "internalType": "address",
          "name": "operator",
          "type": "address"
        },
        {
          "indexed": false,
          "internalType": "bool",
          "name": "approved",
          "type": "bool"
        }
      ],
      "name": "ApprovalForAll",
      "type": "event"
    },
    {
      "anonymous": false,
      "inputs": [
        {
          "indexed": true,
          "internalType": "address",
          "name": "previousOwner",
          "type": "address"
        },
        {
          "indexed": true,
          "internalType": "address",
          "name": "newOwner",
          "type": "address"
        }
      ],
      "name": "OwnershipTransferred",
      "type": "event"
    },
    {
      "anonymous": false,
      "inputs": [
        {
          "indexed": true,
          "internalType": "address",
          "name": "from",
          "type": "address"
        },
        {
          "indexed": true,
          "internalType": "address",
          "name": "to",
          "type": "address"
        },
        {
          "indexed": true,
          "internalType": "uint256",
          "name": "tokenId",
          "type": "uint256"
        }
      ],
      "name": "Transfer",
      "type": "event"
    },
    {
      "inputs": [],
      "name": "_getMyTokens",
      "outputs": [
        {
          "internalType": "uint256[]",
          "name": "",
          "type": "uint256[]"
        }
      ],
      "stateMutability": "view",
      "type": "function"
    },
    {
      "inputs": [
        {
          "internalType": "uint256",
          "name": "tokenId",
          "type": "uint256"
        }
      ],
      "name": "_getOnSaleStatus",
      "outputs": [
        {
          "internalType": "bool",
          "name": "",
          "type": "bool"
        }
      ],
      "stateMutability": "view",
      "type": "function"
    },
    {
      "inputs": [
        {
          "internalType": "uint256",
          "name": "tokenId",
          "type": "uint256"
        }
      ],
      "name": "_getOnSaleToken",
      "outputs": [
        {
          "components": [
            {
              "internalType": "uint256",
              "name": "tokenId",
              "type": "uint256"
            },
            {
              "internalType": "address",
              "name": "postedBy",
              "type": "address"
            },
            {
              "internalType": "uint256",
              "name": "minimumPrice",
              "type": "uint256"
            },
            {
              "internalType": "uint256",
              "name": "offersCount",
              "type": "uint256"
            },
            {
              "internalType": "bool",
              "name": "isAvailable",
              "type": "bool"
            },
            {
              "internalType": "address",
              "name": "soldTo",
              "type": "address"
            },
            {
              "components": [
                {
                  "internalType": "address",
                  "name": "bidder",
                  "type": "address"
                },
                {
                  "internalType": "uint256",
                  "name": "offerPrice",
                  "type": "uint256"
                }
              ],
              "internalType": "struct House.Offer[]",
              "name": "offers",
              "type": "tuple[]"
            }
          ],
          "internalType": "struct House.SaleToken",
          "name": "",
          "type": "tuple"
        }
      ],
      "stateMutability": "view",
      "type": "function"
    },
    {
      "inputs": [],
      "name": "_getSaleTokens",
      "outputs": [
        {
          "components": [
            {
              "internalType": "uint256",
              "name": "tokenId",
              "type": "uint256"
            },
            {
              "internalType": "address",
              "name": "postedBy",
              "type": "address"
            },
            {
              "internalType": "uint256",
              "name": "minimumPrice",
              "type": "uint256"
            },
            {
              "internalType": "uint256",
              "name": "offersCount",
              "type": "uint256"
            },
            {
              "internalType": "bool",
              "name": "isAvailable",
              "type": "bool"
            },
            {
              "internalType": "address",
              "name": "soldTo",
              "type": "address"
            },
            {
              "components": [
                {
                  "internalType": "address",
                  "name": "bidder",
                  "type": "address"
                },
                {
                  "internalType": "uint256",
                  "name": "offerPrice",
                  "type": "uint256"
                }
              ],
              "internalType": "struct House.Offer[]",
              "name": "offers",
              "type": "tuple[]"
            }
          ],
          "internalType": "struct House.SaleToken[]",
          "name": "",
          "type": "tuple[]"
        }
      ],
      "stateMutability": "view",
      "type": "function"
    },
    {
      "inputs": [
        {
          "internalType": "address",
          "name": "",
          "type": "address"
        },
        {
          "internalType": "uint256",
          "name": "",
          "type": "uint256"
        }
      ],
      "name": "_myTokens",
      "outputs": [
        {
          "internalType": "uint256",
          "name": "",
          "type": "uint256"
        }
      ],
      "stateMutability": "view",
      "type": "function"
    },
    {
      "inputs": [
        {
          "internalType": "address",
          "name": "to",
          "type": "address"
        },
        {
          "internalType": "uint256",
          "name": "tokenId",
          "type": "uint256"
        }
      ],
      "name": "approve",
      "outputs": [],
      "stateMutability": "nonpayable",
      "type": "function"
    },
    {
      "inputs": [
        {
          "internalType": "address",
          "name": "owner",
          "type": "address"
        }
      ],
      "name": "balanceOf",
      "outputs": [
        {
          "internalType": "uint256",
          "name": "",
          "type": "uint256"
        }
      ],
      "stateMutability": "view",
      "type": "function"
    },
    {
      "inputs": [
        {
          "internalType": "uint256",
          "name": "tokenId",
          "type": "uint256"
        }
      ],
      "name": "burn",
      "outputs": [],
      "stateMutability": "nonpayable",
      "type": "function"
    },
    {
      "inputs": [
        {
          "internalType": "uint256",
          "name": "tokenId",
          "type": "uint256"
        }
      ],
      "name": "getApproved",
      "outputs": [
        {
          "internalType": "address",
          "name": "",
          "type": "address"
        }
      ],
      "stateMutability": "view",
      "type": "function"
    },
    {
      "inputs": [
        {
          "internalType": "address",
          "name": "owner",
          "type": "address"
        },
        {
          "internalType": "address",
          "name": "operator",
          "type": "address"
        }
      ],
      "name": "isApprovedForAll",
      "outputs": [
        {
          "internalType": "bool",
          "name": "",
          "type": "bool"
        }
      ],
      "stateMutability": "view",
      "type": "function"
    },
    {
      "inputs": [
        {
          "internalType": "address",
          "name": "_to",
          "type": "address"
        },
        {
          "internalType": "string",
          "name": "_hash",
          "type": "string"
        }
      ],
      "name": "mint",
      "outputs": [
        {
          "internalType": "uint256",
          "name": "",
          "type": "uint256"
        }
      ],
      "stateMutability": "nonpayable",
      "type": "function"
    },
    {
      "inputs": [],
      "name": "name",
      "outputs": [
        {
          "internalType": "string",
          "name": "",
          "type": "string"
        }
      ],
      "stateMutability": "view",
      "type": "function"
    },
    {
      "inputs": [
        {
          "internalType": "uint256",
          "name": "tokenId",
          "type": "uint256"
        }
      ],
      "name": "offer",
      "outputs": [],
      "stateMutability": "payable",
      "type": "function"
    },
    {
      "inputs": [],
      "name": "owner",
      "outputs": [
        {
          "internalType": "address",
          "name": "",
          "type": "address"
        }
      ],
      "stateMutability": "view",
      "type": "function"
    },
    {
      "inputs": [
        {
          "internalType": "uint256",
          "name": "tokenId",
          "type": "uint256"
        }
      ],
      "name": "ownerOf",
      "outputs": [
        {
          "internalType": "address",
          "name": "",
          "type": "address"
        }
      ],
      "stateMutability": "view",
      "type": "function"
    },
    {
      "inputs": [
        {
          "internalType": "uint256",
          "name": "tokenId",
          "type": "uint256"
        },
        {
          "internalType": "uint256",
          "name": "minimumPrice",
          "type": "uint256"
        }
      ],
      "name": "putOnSale",
      "outputs": [],
      "stateMutability": "nonpayable",
      "type": "function"
    },
    {
      "inputs": [],
      "name": "renounceOwnership",
      "outputs": [],
      "stateMutability": "nonpayable",
      "type": "function"
    },
    {
      "inputs": [
        {
          "internalType": "uint256",
          "name": "tokenId",
          "type": "uint256"
        }
      ],
      "name": "revokeSaleToken",
      "outputs": [],
      "stateMutability": "payable",
      "type": "function"
    },
    {
      "inputs": [
        {
          "internalType": "address",
          "name": "from",
          "type": "address"
        },
        {
          "internalType": "address",
          "name": "to",
          "type": "address"
        },
        {
          "internalType": "uint256",
          "name": "tokenId",
          "type": "uint256"
        }
      ],
      "name": "safeTransferFrom",
      "outputs": [],
      "stateMutability": "nonpayable",
      "type": "function"
    },
    {
      "inputs": [
        {
          "internalType": "address",
          "name": "from",
          "type": "address"
        },
        {
          "internalType": "address",
          "name": "to",
          "type": "address"
        },
        {
          "internalType": "uint256",
          "name": "tokenId",
          "type": "uint256"
        },
        {
          "internalType": "bytes",
          "name": "_data",
          "type": "bytes"
        }
      ],
      "name": "safeTransferFrom",
      "outputs": [],
      "stateMutability": "nonpayable",
      "type": "function"
    },
    {
      "inputs": [
        {
          "internalType": "uint256",
          "name": "",
          "type": "uint256"
        }
      ],
      "name": "saleTokens",
      "outputs": [
        {
          "internalType": "uint256",
          "name": "tokenId",
          "type": "uint256"
        },
        {
          "internalType": "address",
          "name": "postedBy",
          "type": "address"
        },
        {
          "internalType": "uint256",
          "name": "minimumPrice",
          "type": "uint256"
        },
        {
          "internalType": "uint256",
          "name": "offersCount",
          "type": "uint256"
        },
        {
          "internalType": "bool",
          "name": "isAvailable",
          "type": "bool"
        },
        {
          "internalType": "address",
          "name": "soldTo",
          "type": "address"
        }
      ],
      "stateMutability": "view",
      "type": "function"
    },
    {
      "inputs": [
        {
          "internalType": "address",
          "name": "operator",
          "type": "address"
        },
        {
          "internalType": "bool",
          "name": "approved",
          "type": "bool"
        }
      ],
      "name": "setApprovalForAll",
      "outputs": [],
      "stateMutability": "nonpayable",
      "type": "function"
    },
    {
      "inputs": [
        {
          "internalType": "string",
          "name": "baseURI_",
          "type": "string"
        }
      ],
      "name": "setBaseURI",
      "outputs": [],
      "stateMutability": "nonpayable",
      "type": "function"
    },
    {
      "inputs": [
        {
          "internalType": "bytes4",
          "name": "interfaceId",
          "type": "bytes4"
        }
      ],
      "name": "supportsInterface",
      "outputs": [
        {
          "internalType": "bool",
          "name": "",
          "type": "bool"
        }
      ],
      "stateMutability": "view",
      "type": "function"
    },
    {
      "inputs": [],
      "name": "symbol",
      "outputs": [
        {
          "internalType": "string",
          "name": "",
          "type": "string"
        }
      ],
      "stateMutability": "view",
      "type": "function"
    },
    {
      "inputs": [
        {
          "internalType": "uint256",
          "name": "tokenId",
          "type": "uint256"
        }
      ],
      "name": "tokenURI",
      "outputs": [
        {
          "internalType": "string",
          "name": "",
          "type": "string"
        }
      ],
      "stateMutability": "view",
      "type": "function"
    },
    {
      "inputs": [],
      "name": "totalSaleTokens",
      "outputs": [
        {
          "internalType": "uint256",
          "name": "",
          "type": "uint256"
        }
      ],
      "stateMutability": "view",
      "type": "function"
    },
    {
      "inputs": [],
      "name": "totalTokens",
      "outputs": [
        {
          "internalType": "uint256",
          "name": "",
          "type": "uint256"
        }
      ],
      "stateMutability": "view",
      "type": "function"
    },
    {
      "inputs": [
        {
          "internalType": "uint256",
          "name": "tokenId",
          "type": "uint256"
        },
        {
          "internalType": "uint256",
          "name": "offerIndex",
          "type": "uint256"
        }
      ],
      "name": "transfer",
      "outputs": [],
      "stateMutability": "payable",
      "type": "function"
    },
    {
      "inputs": [
        {
          "internalType": "address",
          "name": "from",
          "type": "address"
        },
        {
          "internalType": "address",
          "name": "to",
          "type": "address"
        },
        {
          "internalType": "uint256",
          "name": "tokenId",
          "type": "uint256"
        }
      ],
      "name": "transferFrom",
      "outputs": [],
      "stateMutability": "nonpayable",
      "type": "function"
    },
    {
      "inputs": [
        {
          "internalType": "address",
          "name": "newOwner",
          "type": "address"
        }
      ],
      "name": "transferOwnership",
      "outputs": [],
      "stateMutability": "nonpayable",
      "type": "function"
    }
  ],
  "bytecode": "0x60806040526040518060400160405280600781526020017f697066733a2f2f000000000000000000000000000000000000000000000000008152506008908051906020019062000051929190620001f4565b503480156200005f57600080fd5b506040518060400160405280600c81526020017f5072656d69756d486f75736500000000000000000000000000000000000000008152506040518060400160405280600281526020017f50480000000000000000000000000000000000000000000000000000000000008152508160009080519060200190620000e4929190620001f4565b508060019080519060200190620000fd929190620001f4565b50505062000120620001146200012660201b60201c565b6200012e60201b60201c565b62000309565b600033905090565b6000600660009054906101000a900473ffffffffffffffffffffffffffffffffffffffff16905081600660006101000a81548173ffffffffffffffffffffffffffffffffffffffff021916908373ffffffffffffffffffffffffffffffffffffffff1602179055508173ffffffffffffffffffffffffffffffffffffffff168173ffffffffffffffffffffffffffffffffffffffff167f8be0079c531659141344cd1fd0a4f28419497f9722a3daafe3b4186f6b6457e060405160405180910390a35050565b8280546200020290620002a4565b90600052602060002090601f01602090048101928262000226576000855562000272565b82601f106200024157805160ff191683800117855562000272565b8280016001018555821562000272579182015b828111156200027157825182559160200191906001019062000254565b5b50905062000281919062000285565b5090565b5b80821115620002a057600081600090555060010162000286565b5090565b60006002820490506001821680620002bd57607f821691505b60208210811415620002d457620002d3620002da565b5b50919050565b7f4e487b7100000000000000000000000000000000000000000000000000000000600052602260045260246000fd5b6159e680620003196000396000f3fe6080604052600436106101d85760003560e01c8063715018a611610102578063a4c1431611610095578063d0def52111610064578063d0def521146106bc578063d18d8af5146106f9578063e985e9c514610724578063f2fde38b14610761576101d8565b8063a4c14316146105fd578063ae83f2d71461063a578063b88d4fde14610656578063c87b56dd1461067f576101d8565b80638da5cb5b116100d15780638da5cb5b1461053c57806395d89b4114610567578063a22cb46514610592578063a4b2a27c146105bb576101d8565b8063715018a6146104b3578063761610fc146104ca5780637e1c0c09146104e657806382431b0a14610511576101d8565b806342842e0e1161017a57806355f804b31161014957806355f804b3146103d35780636352211e146103fc5780636a23e8a71461043957806370a0823114610476576101d8565b806342842e0e1461031957806342966c68146103425780634b1662991461036b5780634f42697d146103a8576101d8565b8063095ea7b3116101b6578063095ea7b3146102825780630cf79e0a146102ab57806323b872dd146102c757806336f7992b146102f0576101d8565b806301ffc9a7146101dd57806306fdde031461021a578063081812fc14610245575b600080fd5b3480156101e957600080fd5b5061020460048036038101906101ff9190614340565b61078a565b60405161021191906150e7565b60405180910390f35b34801561022657600080fd5b5061022f61086c565b60405161023c9190615102565b60405180910390f35b34801561025157600080fd5b5061026c600480360381019061026791906143d3565b6108fe565b604051610279919061503c565b60405180910390f35b34801561028e57600080fd5b506102a960048036038101906102a49190614304565b610983565b005b6102c560048036038101906102c091906143fc565b610a9b565b005b3480156102d357600080fd5b506102ee60048036038101906102e991906141aa565b61110d565b005b3480156102fc57600080fd5b50610317600480360381019061031291906143fc565b61116d565b005b34801561032557600080fd5b50610340600480360381019061033b91906141aa565b6114e5565b005b34801561034e57600080fd5b50610369600480360381019061036491906143d3565b611505565b005b34801561037757600080fd5b50610392600480360381019061038d91906143d3565b6116fa565b60405161039f91906150e7565b60405180910390f35b3480156103b457600080fd5b506103bd61176c565b6040516103ca91906150a3565b60405180910390f35b3480156103df57600080fd5b506103fa60048036038101906103f59190614392565b61196f565b005b34801561040857600080fd5b50610423600480360381019061041e91906143d3565b611a05565b604051610430919061503c565b60405180910390f35b34801561044557600080fd5b50610460600480360381019061045b91906143d3565b611ab7565b60405161046d9190615424565b60405180910390f35b34801561048257600080fd5b5061049d60048036038101906104989190614145565b611cdc565b6040516104aa9190615446565b60405180910390f35b3480156104bf57600080fd5b506104c8611d94565b005b6104e460048036038101906104df91906143d3565b611e1c565b005b3480156104f257600080fd5b506104fb612229565b6040516105089190615446565b60405180910390f35b34801561051d57600080fd5b5061052661222f565b6040516105339190615446565b60405180910390f35b34801561054857600080fd5b50610551612235565b60405161055e919061503c565b60405180910390f35b34801561057357600080fd5b5061057c61225f565b6040516105899190615102565b60405180910390f35b34801561059e57600080fd5b506105b960048036038101906105b49190614274565b6122f1565b005b3480156105c757600080fd5b506105e260048036038101906105dd91906143d3565b612307565b6040516105f496959493929190615461565b60405180910390f35b34801561060957600080fd5b50610624600480360381019061061f9190614304565b6123a0565b6040516106319190615446565b60405180910390f35b610654600480360381019061064f91906143d3565b6123d1565b005b34801561066257600080fd5b5061067d600480360381019061067891906141f9565b612931565b005b34801561068b57600080fd5b506106a660048036038101906106a191906143d3565b612993565b6040516106b39190615102565b60405180910390f35b3480156106c857600080fd5b506106e360048036038101906106de91906142b0565b612a86565b6040516106f09190615446565b60405180910390f35b34801561070557600080fd5b5061070e612cb6565b60405161071b91906150c5565b60405180910390f35b34801561073057600080fd5b5061074b6004803603810190610746919061416e565b612d4b565b60405161075891906150e7565b60405180910390f35b34801561076d57600080fd5b5061078860048036038101906107839190614145565b612ddf565b005b60007f80ac58cd000000000000000000000000000000000000000000000000000000007bffffffffffffffffffffffffffffffffffffffffffffffffffffffff1916827bffffffffffffffffffffffffffffffffffffffffffffffffffffffff1916148061085557507f5b5e139f000000000000000000000000000000000000000000000000000000007bffffffffffffffffffffffffffffffffffffffffffffffffffffffff1916827bffffffffffffffffffffffffffffffffffffffffffffffffffffffff1916145b80610865575061086482612ed7565b5b9050919050565b60606000805461087b9061580c565b80601f01602080910402602001604051908101604052809291908181526020018280546108a79061580c565b80156108f45780601f106108c9576101008083540402835291602001916108f4565b820191906000526020600020905b8154815290600101906020018083116108d757829003601f168201915b5050505050905090565b600061090982612f41565b610948576040517f08c379a000000000000000000000000000000000000000000000000000000000815260040161093f906152e4565b60405180910390fd5b6004600083815260200190815260200160002060009054906101000a900473ffffffffffffffffffffffffffffffffffffffff169050919050565b600061098e82611a05565b90508073ffffffffffffffffffffffffffffffffffffffff168373ffffffffffffffffffffffffffffffffffffffff1614156109ff576040517f08c379a00000000000000000000000000000000000000000000000000000000081526004016109f6906153a4565b60405180910390fd5b8073ffffffffffffffffffffffffffffffffffffffff16610a1e612fad565b73ffffffffffffffffffffffffffffffffffffffff161480610a4d5750610a4c81610a47612fad565b612d4b565b5b610a8c576040517f08c379a0000000000000000000000000000000000000000000000000000000008152600401610a8390615244565b60405180910390fd5b610a968383612fb5565b505050565b81610aa581612f41565b610ae4576040517f08c379a0000000000000000000000000000000000000000000000000000000008152600401610adb90615204565b60405180910390fd5b60001515600c600083815260200190815260200160002060009054906101000a900460ff1615151415610b4c576040517f08c379a0000000000000000000000000000000000000000000000000000000008152600401610b43906153e4565b60405180910390fd5b610b5d610b57612fad565b8461306e565b610b9c576040517f08c379a0000000000000000000000000000000000000000000000000000000008152600401610b9390615384565b60405180910390fd5b6000600d6000858152602001908152602001600020549050600060118281548110610bf0577f4e487b7100000000000000000000000000000000000000000000000000000000600052603260045260246000fd5b90600052602060002090600602019050600081600301541415610c48576040517f08c379a0000000000000000000000000000000000000000000000000000000008152600401610c3f90615404565b60405180910390fd5b600015158160040160009054906101000a900460ff1615151415610ca1576040517f08c379a0000000000000000000000000000000000000000000000000000000008152600401610c9890615364565b60405180910390fd5b60008160050190506000600b600088815260200190815260200160002060009054906101000a900473ffffffffffffffffffffffffffffffffffffffff16905060005b828054905081101561106f576000838281548110610d2b577f4e487b7100000000000000000000000000000000000000000000000000000000600052603260045260246000fd5b90600052602060002090600202016040518060400160405290816000820160009054906101000a900473ffffffffffffffffffffffffffffffffffffffff1673ffffffffffffffffffffffffffffffffffffffff1673ffffffffffffffffffffffffffffffffffffffff1681526020016001820154815250509050806020015160096000836000015173ffffffffffffffffffffffffffffffffffffffff1673ffffffffffffffffffffffffffffffffffffffff1681526020019081526020016000206000828254610dfd9190615722565b9250508190555087821415610fa7578273ffffffffffffffffffffffffffffffffffffffff166108fc606460058460200151610e3991906156c8565b610e439190615697565b9081150290604051600060405180830381858888f19350505050158015610e6e573d6000803e3d6000fd5b50610e7889611a05565b73ffffffffffffffffffffffffffffffffffffffff166108fc600a60098460200151610ea491906156c8565b610eae9190615697565b9081150290604051600060405180830381858888f19350505050158015610ed9573d6000803e3d6000fd5b50600f6000826000015173ffffffffffffffffffffffffffffffffffffffff1673ffffffffffffffffffffffffffffffffffffffff168152602001908152602001600020899080600181540180825580915050600190039060005260206000200160009091909190915055610f5b610f508a611a05565b82600001518b6114e5565b80600001518560040160016101000a81548173ffffffffffffffffffffffffffffffffffffffff021916908373ffffffffffffffffffffffffffffffffffffffff160217905550610ff7565b806000015173ffffffffffffffffffffffffffffffffffffffff166108fc82602001519081150290604051600060405180830381858888f19350505050158015610ff5573d6000803e3d6000fd5b505b600e60008a81526020019081526020016000206000826000015173ffffffffffffffffffffffffffffffffffffffff1673ffffffffffffffffffffffffffffffffffffffff16815260200190815260200160002060006101000a81549060ff02191690555080806110679061583e565b915050610ce4565b5061107a338861314c565b82600501600061108a9190613d8b565b60008360040160006101000a81548160ff0219169083151502179055506000600c600089815260200190815260200160002060006101000a81548160ff021916908315150217905550600d6000888152602001908152602001600020600090556001601360008282546110fd9190615722565b9250508190555050505050505050565b61111e611118612fad565b8261306e565b61115d576040517f08c379a0000000000000000000000000000000000000000000000000000000008152600401611154906153c4565b60405180910390fd5b61116883838361337a565b505050565b61117682612f41565b6111b5576040517f08c379a00000000000000000000000000000000000000000000000000000000081526004016111ac90615204565b60405180910390fd5b6111bd612fad565b73ffffffffffffffffffffffffffffffffffffffff166111dc83611a05565b73ffffffffffffffffffffffffffffffffffffffff1614611232576040517f08c379a000000000000000000000000000000000000000000000000000000000815260040161122990615384565b60405180910390fd5b60011515600c600084815260200190815260200160002060009054906101000a900460ff161515141561129a576040517f08c379a000000000000000000000000000000000000000000000000000000000815260040161129190615324565b60405180910390fd5b6001600c600084815260200190815260200160002060006101000a81548160ff021916908315150217905550601180549050600d60008481526020019081526020016000208190555060008281600001819055506112f6612fad565b8160010160006101000a81548173ffffffffffffffffffffffffffffffffffffffff021916908373ffffffffffffffffffffffffffffffffffffffff1602179055508181600201819055506000816003018190555060018160040160006101000a81548160ff0219169083151502179055506011819080600181540180825580915050600190039060005260206000209060060201600090919091909150600082015481600001556001820160009054906101000a900473ffffffffffffffffffffffffffffffffffffffff168160010160006101000a81548173ffffffffffffffffffffffffffffffffffffffff021916908373ffffffffffffffffffffffffffffffffffffffff16021790555060028201548160020155600382015481600301556004820160009054906101000a900460ff168160040160006101000a81548160ff0219169083151502179055506004820160019054906101000a900473ffffffffffffffffffffffffffffffffffffffff168160040160016101000a81548173ffffffffffffffffffffffffffffffffffffffff021916908373ffffffffffffffffffffffffffffffffffffffff16021790555060058201816005019080546114c3929190613daf565b5050506001601360008282546114d99190615641565b92505081905550505050565b61150083838360405180602001604052806000815250612931565b505050565b61150e81612f41565b61154d576040517f08c379a000000000000000000000000000000000000000000000000000000000815260040161154490615204565b60405180910390fd5b61155e611558612fad565b8261306e565b61159d576040517f08c379a000000000000000000000000000000000000000000000000000000000815260040161159490615384565b60405180910390fd5b60006010600083815260200190815260200160002080546115bd9061580c565b80601f01602080910402602001604051908101604052809291908181526020018280546115e99061580c565b80156116365780601f1061160b57610100808354040283529160200191611636565b820191906000526020600020905b81548152906001019060200180831161161957829003601f168201915b505050505090506000600a8260405161164f9190615025565b908152602001604051809103902060006101000a81548160ff0219169083151502179055506010600083815260200190815260200160002060006116939190613e78565b61169d338361314c565b600b600083815260200190815260200160002060006101000a81549073ffffffffffffffffffffffffffffffffffffffff02191690556001601260008282546116e69190615722565b925050819055506116f6826135d6565b5050565b600061170582612f41565b611744576040517f08c379a000000000000000000000000000000000000000000000000000000000815260040161173b90615204565b60405180910390fd5b600c600083815260200190815260200160002060009054906101000a900460ff169050919050565b60606011805480602002602001604051908101604052809291908181526020016000905b8282101561196657838290600052602060002090600602016040518060e0016040529081600082015481526020016001820160009054906101000a900473ffffffffffffffffffffffffffffffffffffffff1673ffffffffffffffffffffffffffffffffffffffff1673ffffffffffffffffffffffffffffffffffffffff16815260200160028201548152602001600382015481526020016004820160009054906101000a900460ff161515151581526020016004820160019054906101000a900473ffffffffffffffffffffffffffffffffffffffff1673ffffffffffffffffffffffffffffffffffffffff1673ffffffffffffffffffffffffffffffffffffffff16815260200160058201805480602002602001604051908101604052809291908181526020016000905b8282101561194f57838290600052602060002090600202016040518060400160405290816000820160009054906101000a900473ffffffffffffffffffffffffffffffffffffffff1673ffffffffffffffffffffffffffffffffffffffff1673ffffffffffffffffffffffffffffffffffffffff168152602001600182015481525050815260200190600101906118bd565b505050508152505081526020019060010190611790565b50505050905090565b611977612fad565b73ffffffffffffffffffffffffffffffffffffffff16611995612235565b73ffffffffffffffffffffffffffffffffffffffff16146119eb576040517f08c379a00000000000000000000000000000000000000000000000000000000081526004016119e290615304565b60405180910390fd5b8060089080519060200190611a01929190613eb8565b5050565b6000806002600084815260200190815260200160002060009054906101000a900473ffffffffffffffffffffffffffffffffffffffff169050600073ffffffffffffffffffffffffffffffffffffffff168173ffffffffffffffffffffffffffffffffffffffff161415611aae576040517f08c379a0000000000000000000000000000000000000000000000000000000008152600401611aa5906152a4565b60405180910390fd5b80915050919050565b611abf613f3e565b6000600d6000848152602001908152602001600020549050600060118281548110611b13577f4e487b7100000000000000000000000000000000000000000000000000000000600052603260045260246000fd5b90600052602060002090600602016040518060e0016040529081600082015481526020016001820160009054906101000a900473ffffffffffffffffffffffffffffffffffffffff1673ffffffffffffffffffffffffffffffffffffffff1673ffffffffffffffffffffffffffffffffffffffff16815260200160028201548152602001600382015481526020016004820160009054906101000a900460ff161515151581526020016004820160019054906101000a900473ffffffffffffffffffffffffffffffffffffffff1673ffffffffffffffffffffffffffffffffffffffff1673ffffffffffffffffffffffffffffffffffffffff16815260200160058201805480602002602001604051908101604052809291908181526020016000905b82821015611cc857838290600052602060002090600202016040518060400160405290816000820160009054906101000a900473ffffffffffffffffffffffffffffffffffffffff1673ffffffffffffffffffffffffffffffffffffffff1673ffffffffffffffffffffffffffffffffffffffff16815260200160018201548152505081526020019060010190611c36565b505050508152505090508092505050919050565b60008073ffffffffffffffffffffffffffffffffffffffff168273ffffffffffffffffffffffffffffffffffffffff161415611d4d576040517f08c379a0000000000000000000000000000000000000000000000000000000008152600401611d4490615284565b60405180910390fd5b600360008373ffffffffffffffffffffffffffffffffffffffff1673ffffffffffffffffffffffffffffffffffffffff168152602001908152602001600020549050919050565b611d9c612fad565b73ffffffffffffffffffffffffffffffffffffffff16611dba612235565b73ffffffffffffffffffffffffffffffffffffffff1614611e10576040517f08c379a0000000000000000000000000000000000000000000000000000000008152600401611e0790615304565b60405180910390fd5b611e1a60006136e7565b565b80611e2681612f41565b611e65576040517f08c379a0000000000000000000000000000000000000000000000000000000008152600401611e5c90615204565b60405180910390fd5b60001515600c600083815260200190815260200160002060009054906101000a900460ff1615151415611ecd576040517f08c379a0000000000000000000000000000000000000000000000000000000008152600401611ec4906153e4565b60405180910390fd5b60001515611ee2611edc612fad565b8461306e565b151514611f24576040517f08c379a0000000000000000000000000000000000000000000000000000000008152600401611f1b90615264565b60405180910390fd5b60011515600e600084815260200190815260200160002060003373ffffffffffffffffffffffffffffffffffffffff1673ffffffffffffffffffffffffffffffffffffffff16815260200190815260200160002060009054906101000a900460ff1615151415611fc9576040517f08c379a0000000000000000000000000000000000000000000000000000000008152600401611fc090615124565b60405180910390fd5b6001600e600084815260200190815260200160002060003373ffffffffffffffffffffffffffffffffffffffff1673ffffffffffffffffffffffffffffffffffffffff16815260200190815260200160002060006101000a81548160ff0219169083151502179055506000600d6000848152602001908152602001600020549050600060118281548110612086577f4e487b7100000000000000000000000000000000000000000000000000000000600052603260045260246000fd5b9060005260206000209060060201905080600201543410156120a757600080fd5b600015158160040160009054906101000a900460ff1615151415612100576040517f08c379a00000000000000000000000000000000000000000000000000000000081526004016120f790615364565b60405180910390fd5b600060405180604001604052803373ffffffffffffffffffffffffffffffffffffffff1681526020013481525090508160050181908060018154018082558091505060019003906000526020600020906002020160009091909190915060008201518160000160006101000a81548173ffffffffffffffffffffffffffffffffffffffff021916908373ffffffffffffffffffffffffffffffffffffffff16021790555060208201518160010155505060018260030160008282546121c59190615641565b9250508190555034600960003373ffffffffffffffffffffffffffffffffffffffff1673ffffffffffffffffffffffffffffffffffffffff168152602001908152602001600020600082825461221b9190615641565b925050819055505050505050565b60125481565b60135481565b6000600660009054906101000a900473ffffffffffffffffffffffffffffffffffffffff16905090565b60606001805461226e9061580c565b80601f016020809104026020016040519081016040528092919081815260200182805461229a9061580c565b80156122e75780601f106122bc576101008083540402835291602001916122e7565b820191906000526020600020905b8154815290600101906020018083116122ca57829003601f168201915b5050505050905090565b6123036122fc612fad565b83836137ad565b5050565b6011818154811061231757600080fd5b90600052602060002090600602016000915090508060000154908060010160009054906101000a900473ffffffffffffffffffffffffffffffffffffffff16908060020154908060030154908060040160009054906101000a900460ff16908060040160019054906101000a900473ffffffffffffffffffffffffffffffffffffffff16905086565b600f60205281600052604060002081815481106123bc57600080fd5b90600052602060002001600091509150505481565b806123db81612f41565b61241a576040517f08c379a000000000000000000000000000000000000000000000000000000000815260040161241190615204565b60405180910390fd5b60001515600c600083815260200190815260200160002060009054906101000a900460ff1615151415612482576040517f08c379a0000000000000000000000000000000000000000000000000000000008152600401612479906153e4565b60405180910390fd5b61249361248d612fad565b8361306e565b6124d2576040517f08c379a00000000000000000000000000000000000000000000000000000000081526004016124c990615384565b60405180910390fd5b6000600d6000848152602001908152602001600020549050600060118281548110612526577f4e487b7100000000000000000000000000000000000000000000000000000000600052603260045260246000fd5b90600052602060002090600602019050600015158160040160009054906101000a900460ff161515141561258f576040517f08c379a000000000000000000000000000000000000000000000000000000000815260040161258690615364565b60405180910390fd5b6000816003015411156128b157600081600501905060005b818054905081101561289e578181815481106125ec577f4e487b7100000000000000000000000000000000000000000000000000000000600052603260045260246000fd5b9060005260206000209060020201600101546009600084848154811061263b577f4e487b7100000000000000000000000000000000000000000000000000000000600052603260045260246000fd5b906000526020600020906002020160000160009054906101000a900473ffffffffffffffffffffffffffffffffffffffff1673ffffffffffffffffffffffffffffffffffffffff1673ffffffffffffffffffffffffffffffffffffffff16815260200190815260200160002060008282546126b69190615722565b925050819055508181815481106126f6577f4e487b7100000000000000000000000000000000000000000000000000000000600052603260045260246000fd5b906000526020600020906002020160000160009054906101000a900473ffffffffffffffffffffffffffffffffffffffff1673ffffffffffffffffffffffffffffffffffffffff166108fc83838154811061277a577f4e487b7100000000000000000000000000000000000000000000000000000000600052603260045260246000fd5b9060005260206000209060020201600101549081150290604051600060405180830381858888f193505050501580156127b7573d6000803e3d6000fd5b506000600e60008881526020019081526020016000206000848481548110612808577f4e487b7100000000000000000000000000000000000000000000000000000000600052603260045260246000fd5b906000526020600020906002020160000160009054906101000a900473ffffffffffffffffffffffffffffffffffffffff1673ffffffffffffffffffffffffffffffffffffffff1673ffffffffffffffffffffffffffffffffffffffff16815260200190815260200160002060006101000a81548160ff02191690831515021790555080806128969061583e565b9150506125a7565b508160050160006128af9190613d8b565b505b6000600c600086815260200190815260200160002060006101000a81548160ff021916908315150217905550600d60008381526020019081526020016000206000905560008160040160006101000a81548160ff0219169083151502179055506001601360008282546129249190615722565b9250508190555050505050565b61294261293c612fad565b8361306e565b612981576040517f08c379a0000000000000000000000000000000000000000000000000000000008152600401612978906153c4565b60405180910390fd5b61298d8484848461391a565b50505050565b606061299e82612f41565b6129dd576040517f08c379a00000000000000000000000000000000000000000000000000000000081526004016129d490615204565b60405180910390fd5b60006010600084815260200190815260200160002080546129fd9061580c565b80601f0160208091040260200160405190810160405280929190818152602001828054612a299061580c565b8015612a765780601f10612a4b57610100808354040283529160200191612a76565b820191906000526020600020905b815481529060010190602001808311612a5957829003601f168201915b5050505050905080915050919050565b6000612a90612fad565b73ffffffffffffffffffffffffffffffffffffffff16612aae612235565b73ffffffffffffffffffffffffffffffffffffffff1614612b04576040517f08c379a0000000000000000000000000000000000000000000000000000000008152600401612afb90615304565b60405180910390fd5b60011515600a83604051612b189190615025565b908152602001604051809103902060009054906101000a900460ff1615151415612b77576040517f08c379a0000000000000000000000000000000000000000000000000000000008152600401612b6e90615144565b60405180910390fd5b6001600a83604051612b899190615025565b908152602001604051809103902060006101000a81548160ff021916908315150217905550612bb86007613976565b6000612bc4600761398c565b9050612bd0848261399a565b612bda8184613b68565b600f60008573ffffffffffffffffffffffffffffffffffffffff1673ffffffffffffffffffffffffffffffffffffffff16815260200190815260200160002081908060018154018082558091505060019003906000526020600020016000909190919091505583600b600083815260200190815260200160002060006101000a81548173ffffffffffffffffffffffffffffffffffffffff021916908373ffffffffffffffffffffffffffffffffffffffff160217905550600160126000828254612ca59190615641565b925050819055508091505092915050565b6060600f60003373ffffffffffffffffffffffffffffffffffffffff1673ffffffffffffffffffffffffffffffffffffffff168152602001908152602001600020805480602002602001604051908101604052809291908181526020018280548015612d4157602002820191906000526020600020905b815481526020019060010190808311612d2d575b5050505050905090565b6000600560008473ffffffffffffffffffffffffffffffffffffffff1673ffffffffffffffffffffffffffffffffffffffff16815260200190815260200160002060008373ffffffffffffffffffffffffffffffffffffffff1673ffffffffffffffffffffffffffffffffffffffff16815260200190815260200160002060009054906101000a900460ff16905092915050565b612de7612fad565b73ffffffffffffffffffffffffffffffffffffffff16612e05612235565b73ffffffffffffffffffffffffffffffffffffffff1614612e5b576040517f08c379a0000000000000000000000000000000000000000000000000000000008152600401612e5290615304565b60405180910390fd5b600073ffffffffffffffffffffffffffffffffffffffff168173ffffffffffffffffffffffffffffffffffffffff161415612ecb576040517f08c379a0000000000000000000000000000000000000000000000000000000008152600401612ec290615184565b60405180910390fd5b612ed4816136e7565b50565b60007f01ffc9a7000000000000000000000000000000000000000000000000000000007bffffffffffffffffffffffffffffffffffffffffffffffffffffffff1916827bffffffffffffffffffffffffffffffffffffffffffffffffffffffff1916149050919050565b60008073ffffffffffffffffffffffffffffffffffffffff166002600084815260200190815260200160002060009054906101000a900473ffffffffffffffffffffffffffffffffffffffff1673ffffffffffffffffffffffffffffffffffffffff1614159050919050565b600033905090565b816004600083815260200190815260200160002060006101000a81548173ffffffffffffffffffffffffffffffffffffffff021916908373ffffffffffffffffffffffffffffffffffffffff160217905550808273ffffffffffffffffffffffffffffffffffffffff1661302883611a05565b73ffffffffffffffffffffffffffffffffffffffff167f8c5be1e5ebec7d5bd14f71427d1e84f3dd0314c0f7b2291e5b200ac8c7c3b92560405160405180910390a45050565b600061307982612f41565b6130b8576040517f08c379a00000000000000000000000000000000000000000000000000000000081526004016130af90615224565b60405180910390fd5b60006130c383611a05565b90508073ffffffffffffffffffffffffffffffffffffffff168473ffffffffffffffffffffffffffffffffffffffff16148061313257508373ffffffffffffffffffffffffffffffffffffffff1661311a846108fe565b73ffffffffffffffffffffffffffffffffffffffff16145b8061314357506131428185612d4b565b5b91505092915050565b6000600f60008473ffffffffffffffffffffffffffffffffffffffff1673ffffffffffffffffffffffffffffffffffffffff168152602001908152602001600020905060006001905060005b811561320657838382815481106131d8577f4e487b7100000000000000000000000000000000000000000000000000000000600052603260045260246000fd5b9060005260206000200154146131fc576001816131f59190615641565b9050613201565b600091505b613198565b60008190505b6001848054905061321d9190615722565b8110156132ce57836001826132329190615641565b81548110613269577f4e487b7100000000000000000000000000000000000000000000000000000000600052603260045260246000fd5b90600052602060002001548482815481106132ad577f4e487b7100000000000000000000000000000000000000000000000000000000600052603260045260246000fd5b906000526020600020018190555080806132c69061583e565b91505061320c565b5082600184805490506132e19190615722565b81548110613318577f4e487b7100000000000000000000000000000000000000000000000000000000600052603260045260246000fd5b90600052602060002001600090558280548061335d577f4e487b7100000000000000000000000000000000000000000000000000000000600052603160045260246000fd5b600190038181906000526020600020016000905590555050505050565b8273ffffffffffffffffffffffffffffffffffffffff1661339a82611a05565b73ffffffffffffffffffffffffffffffffffffffff16146133f0576040517f08c379a00000000000000000000000000000000000000000000000000000000081526004016133e790615344565b60405180910390fd5b600073ffffffffffffffffffffffffffffffffffffffff168273ffffffffffffffffffffffffffffffffffffffff161415613460576040517f08c379a0000000000000000000000000000000000000000000000000000000008152600401613457906151c4565b60405180910390fd5b61346b838383613bdc565b613476600082612fb5565b6001600360008573ffffffffffffffffffffffffffffffffffffffff1673ffffffffffffffffffffffffffffffffffffffff16815260200190815260200160002060008282546134c69190615722565b925050819055506001600360008473ffffffffffffffffffffffffffffffffffffffff1673ffffffffffffffffffffffffffffffffffffffff168152602001908152602001600020600082825461351d9190615641565b92505081905550816002600083815260200190815260200160002060006101000a81548173ffffffffffffffffffffffffffffffffffffffff021916908373ffffffffffffffffffffffffffffffffffffffff160217905550808273ffffffffffffffffffffffffffffffffffffffff168473ffffffffffffffffffffffffffffffffffffffff167fddf252ad1be2c89b69c2b068fc378daa952ba7f163c4a11628f55a4df523b3ef60405160405180910390a4505050565b60006135e182611a05565b90506135ef81600084613bdc565b6135fa600083612fb5565b6001600360008373ffffffffffffffffffffffffffffffffffffffff1673ffffffffffffffffffffffffffffffffffffffff168152602001908152602001600020600082825461364a9190615722565b925050819055506002600083815260200190815260200160002060006101000a81549073ffffffffffffffffffffffffffffffffffffffff021916905581600073ffffffffffffffffffffffffffffffffffffffff168273ffffffffffffffffffffffffffffffffffffffff167fddf252ad1be2c89b69c2b068fc378daa952ba7f163c4a11628f55a4df523b3ef60405160405180910390a45050565b6000600660009054906101000a900473ffffffffffffffffffffffffffffffffffffffff16905081600660006101000a81548173ffffffffffffffffffffffffffffffffffffffff021916908373ffffffffffffffffffffffffffffffffffffffff1602179055508173ffffffffffffffffffffffffffffffffffffffff168173ffffffffffffffffffffffffffffffffffffffff167f8be0079c531659141344cd1fd0a4f28419497f9722a3daafe3b4186f6b6457e060405160405180910390a35050565b8173ffffffffffffffffffffffffffffffffffffffff168373ffffffffffffffffffffffffffffffffffffffff16141561381c576040517f08c379a0000000000000000000000000000000000000000000000000000000008152600401613813906151e4565b60405180910390fd5b80600560008573ffffffffffffffffffffffffffffffffffffffff1673ffffffffffffffffffffffffffffffffffffffff16815260200190815260200160002060008473ffffffffffffffffffffffffffffffffffffffff1673ffffffffffffffffffffffffffffffffffffffff16815260200190815260200160002060006101000a81548160ff0219169083151502179055508173ffffffffffffffffffffffffffffffffffffffff168373ffffffffffffffffffffffffffffffffffffffff167f17307eab39ab6107e8899845ad3d59bd9653f200f220920489ca2b5937696c318360405161390d91906150e7565b60405180910390a3505050565b61392584848461337a565b61393184848484613be1565b613970576040517f08c379a000000000000000000000000000000000000000000000000000000000815260040161396790615164565b60405180910390fd5b50505050565b6001816000016000828254019250508190555050565b600081600001549050919050565b600073ffffffffffffffffffffffffffffffffffffffff168273ffffffffffffffffffffffffffffffffffffffff161415613a0a576040517f08c379a0000000000000000000000000000000000000000000000000000000008152600401613a01906152c4565b60405180910390fd5b613a1381612f41565b15613a53576040517f08c379a0000000000000000000000000000000000000000000000000000000008152600401613a4a906151a4565b60405180910390fd5b613a5f60008383613bdc565b6001600360008473ffffffffffffffffffffffffffffffffffffffff1673ffffffffffffffffffffffffffffffffffffffff1681526020019081526020016000206000828254613aaf9190615641565b92505081905550816002600083815260200190815260200160002060006101000a81548173ffffffffffffffffffffffffffffffffffffffff021916908373ffffffffffffffffffffffffffffffffffffffff160217905550808273ffffffffffffffffffffffffffffffffffffffff16600073ffffffffffffffffffffffffffffffffffffffff167fddf252ad1be2c89b69c2b068fc378daa952ba7f163c4a11628f55a4df523b3ef60405160405180910390a45050565b613b7182612f41565b613bb0576040517f08c379a0000000000000000000000000000000000000000000000000000000008152600401613ba790615204565b60405180910390fd5b80601060008481526020019081526020016000209080519060200190613bd7929190613eb8565b505050565b505050565b6000613c028473ffffffffffffffffffffffffffffffffffffffff16613d78565b15613d6b578373ffffffffffffffffffffffffffffffffffffffff1663150b7a02613c2b612fad565b8786866040518563ffffffff1660e01b8152600401613c4d9493929190615057565b602060405180830381600087803b158015613c6757600080fd5b505af1925050508015613c9857506040513d601f19601f82011682018060405250810190613c959190614369565b60015b613d1b573d8060008114613cc8576040519150601f19603f3d011682016040523d82523d6000602084013e613ccd565b606091505b50600081511415613d13576040517f08c379a0000000000000000000000000000000000000000000000000000000008152600401613d0a90615164565b60405180910390fd5b805181602001fd5b63150b7a0260e01b7bffffffffffffffffffffffffffffffffffffffffffffffffffffffff1916817bffffffffffffffffffffffffffffffffffffffffffffffffffffffff191614915050613d70565b600190505b949350505050565b600080823b905060008111915050919050565b5080546000825560020290600052602060002090810190613dac9190613fa9565b50565b828054828255906000526020600020906002028101928215613e675760005260206000209160020282015b82811115613e665782826000820160009054906101000a900473ffffffffffffffffffffffffffffffffffffffff168160000160006101000a81548173ffffffffffffffffffffffffffffffffffffffff021916908373ffffffffffffffffffffffffffffffffffffffff16021790555060018201548160010155505091600201919060020190613dda565b5b509050613e749190613fa9565b5090565b508054613e849061580c565b6000825580601f10613e965750613eb5565b601f016020900490600052602060002090810190613eb49190613fef565b5b50565b828054613ec49061580c565b90600052602060002090601f016020900481019282613ee65760008555613f2d565b82601f10613eff57805160ff1916838001178555613f2d565b82800160010185558215613f2d579182015b82811115613f2c578251825591602001919060010190613f11565b5b509050613f3a9190613fef565b5090565b6040518060e0016040528060008152602001600073ffffffffffffffffffffffffffffffffffffffff1681526020016000815260200160008152602001600015158152602001600073ffffffffffffffffffffffffffffffffffffffff168152602001606081525090565b5b80821115613feb57600080820160006101000a81549073ffffffffffffffffffffffffffffffffffffffff0219169055600182016000905550600201613faa565b5090565b5b80821115614008576000816000905550600101613ff0565b5090565b600061401f61401a846154f3565b6154c2565b90508281526020810184848401111561403757600080fd5b6140428482856157ca565b509392505050565b600061405d61405884615523565b6154c2565b90508281526020810184848401111561407557600080fd5b6140808482856157ca565b509392505050565b60008135905061409781615954565b92915050565b6000813590506140ac8161596b565b92915050565b6000813590506140c181615982565b92915050565b6000815190506140d681615982565b92915050565b600082601f8301126140ed57600080fd5b81356140fd84826020860161400c565b91505092915050565b600082601f83011261411757600080fd5b813561412784826020860161404a565b91505092915050565b60008135905061413f81615999565b92915050565b60006020828403121561415757600080fd5b600061416584828501614088565b91505092915050565b6000806040838503121561418157600080fd5b600061418f85828601614088565b92505060206141a085828601614088565b9150509250929050565b6000806000606084860312156141bf57600080fd5b60006141cd86828701614088565b93505060206141de86828701614088565b92505060406141ef86828701614130565b9150509250925092565b6000806000806080858703121561420f57600080fd5b600061421d87828801614088565b945050602061422e87828801614088565b935050604061423f87828801614130565b925050606085013567ffffffffffffffff81111561425c57600080fd5b614268878288016140dc565b91505092959194509250565b6000806040838503121561428757600080fd5b600061429585828601614088565b92505060206142a68582860161409d565b9150509250929050565b600080604083850312156142c357600080fd5b60006142d185828601614088565b925050602083013567ffffffffffffffff8111156142ee57600080fd5b6142fa85828601614106565b9150509250929050565b6000806040838503121561431757600080fd5b600061432585828601614088565b925050602061433685828601614130565b9150509250929050565b60006020828403121561435257600080fd5b6000614360848285016140b2565b91505092915050565b60006020828403121561437b57600080fd5b6000614389848285016140c7565b91505092915050565b6000602082840312156143a457600080fd5b600082013567ffffffffffffffff8111156143be57600080fd5b6143ca84828501614106565b91505092915050565b6000602082840312156143e557600080fd5b60006143f384828501614130565b91505092915050565b6000806040838503121561440f57600080fd5b600061441d85828601614130565b925050602061442e85828601614130565b9150509250929050565b60006144448383614ea0565b60408301905092915050565b600061445c8383614ecf565b905092915050565b60006144708383615007565b60208301905092915050565b61448581615756565b82525050565b61449481615756565b82525050565b60006144a582615583565b6144af81856155e1565b93506144ba83615553565b8060005b838110156144eb5781516144d28882614438565b97506144dd836155ba565b9250506001810190506144be565b5085935050505092915050565b60006145038261558e565b61450d81856155f2565b93508360208202850161451f85615563565b8060005b8581101561455b578484038952815161453c8582614450565b9450614547836155c7565b925060208a01995050600181019050614523565b50829750879550505050505092915050565b600061457882615599565b6145828185615603565b935061458d83615573565b8060005b838110156145be5781516145a58882614464565b97506145b0836155d4565b925050600181019050614591565b5085935050505092915050565b6145d481615768565b82525050565b6145e381615768565b82525050565b60006145f4826155a4565b6145fe8185615614565b935061460e8185602086016157d9565b61461781615943565b840191505092915050565b600061462d826155af565b6146378185615625565b93506146478185602086016157d9565b61465081615943565b840191505092915050565b6000614666826155af565b6146708185615636565b93506146808185602086016157d9565b80840191505092915050565b6000614699601f83615625565b91507f596f752068617665206f66666572656420666f72207468697320746f6b656e006000830152602082019050919050565b60006146d9601983615625565b91507f596f757220746f6b656e20616c726561647920657869737473000000000000006000830152602082019050919050565b6000614719603283615625565b91507f4552433732313a207472616e7366657220746f206e6f6e20455243373231526560008301527f63656976657220696d706c656d656e74657200000000000000000000000000006020830152604082019050919050565b600061477f602683615625565b91507f4f776e61626c653a206e6577206f776e657220697320746865207a65726f206160008301527f64647265737300000000000000000000000000000000000000000000000000006020830152604082019050919050565b60006147e5601c83615625565b91507f4552433732313a20746f6b656e20616c7265616479206d696e746564000000006000830152602082019050919050565b6000614825602483615625565b91507f4552433732313a207472616e7366657220746f20746865207a65726f2061646460008301527f72657373000000000000000000000000000000000000000000000000000000006020830152604082019050919050565b600061488b601983615625565b91507f4552433732313a20617070726f766520746f2063616c6c6572000000000000006000830152602082019050919050565b60006148cb601483615625565b91507f546f6b656e20646f6573206e6f742065786973740000000000000000000000006000830152602082019050919050565b600061490b602c83615625565b91507f4552433732313a206f70657261746f7220717565727920666f72206e6f6e657860008301527f697374656e7420746f6b656e00000000000000000000000000000000000000006020830152604082019050919050565b6000614971603883615625565b91507f4552433732313a20617070726f76652063616c6c6572206973206e6f74206f7760008301527f6e6572206e6f7220617070726f76656420666f7220616c6c00000000000000006020830152604082019050919050565b60006149d7602383615625565b91507f596f752063616e206e6f74206f6666657220746f20796f7572206f776e20746f60008301527f6b656e00000000000000000000000000000000000000000000000000000000006020830152604082019050919050565b6000614a3d602a83615625565b91507f4552433732313a2062616c616e636520717565727920666f7220746865207a6560008301527f726f2061646472657373000000000000000000000000000000000000000000006020830152604082019050919050565b6000614aa3602983615625565b91507f4552433732313a206f776e657220717565727920666f72206e6f6e657869737460008301527f656e7420746f6b656e00000000000000000000000000000000000000000000006020830152604082019050919050565b6000614b09602083615625565b91507f4552433732313a206d696e7420746f20746865207a65726f20616464726573736000830152602082019050919050565b6000614b49602c83615625565b91507f4552433732313a20617070726f76656420717565727920666f72206e6f6e657860008301527f697374656e7420746f6b656e00000000000000000000000000000000000000006020830152604082019050919050565b6000614baf602083615625565b91507f4f776e61626c653a2063616c6c6572206973206e6f7420746865206f776e65726000830152602082019050919050565b6000614bef601883615625565b91507f546f6b656e20697320616c7265616479206f6e2073616c6500000000000000006000830152602082019050919050565b6000614c2f602983615625565b91507f4552433732313a207472616e73666572206f6620746f6b656e2074686174206960008301527f73206e6f74206f776e00000000000000000000000000000000000000000000006020830152604082019050919050565b6000614c95602583615625565b91507f546f6b656e206973206e6f7420666f722073616c6520696e207468697320617560008301527f6374696f6e0000000000000000000000000000000000000000000000000000006020830152604082019050919050565b6000614cfb601683615625565b91507f596f7520617265206e6f7420617574686f72697a6564000000000000000000006000830152602082019050919050565b6000614d3b602183615625565b91507f4552433732313a20617070726f76616c20746f2063757272656e74206f776e6560008301527f72000000000000000000000000000000000000000000000000000000000000006020830152604082019050919050565b6000614da1603183615625565b91507f4552433732313a207472616e736665722063616c6c6572206973206e6f74206f60008301527f776e6572206e6f7220617070726f7665640000000000000000000000000000006020830152604082019050919050565b6000614e07601483615625565b91507f546f6b656e206973206e6f74206f6e2073616c650000000000000000000000006000830152602082019050919050565b6000614e47602383615625565b91507f596f757220746f6b656e20686173206e6f74206265656e206f6666657265642060008301527f79657400000000000000000000000000000000000000000000000000000000006020830152604082019050919050565b604082016000820151614eb6600085018261447c565b506020820151614ec96020850182615007565b50505050565b600060e083016000830151614ee76000860182615007565b506020830151614efa602086018261447c565b506040830151614f0d6040860182615007565b506060830151614f206060860182615007565b506080830151614f3360808601826145cb565b5060a0830151614f4660a086018261447c565b5060c083015184820360c0860152614f5e828261449a565b9150508091505092915050565b600060e083016000830151614f836000860182615007565b506020830151614f96602086018261447c565b506040830151614fa96040860182615007565b506060830151614fbc6060860182615007565b506080830151614fcf60808601826145cb565b5060a0830151614fe260a086018261447c565b5060c083015184820360c0860152614ffa828261449a565b9150508091505092915050565b615010816157c0565b82525050565b61501f816157c0565b82525050565b6000615031828461465b565b915081905092915050565b6000602082019050615051600083018461448b565b92915050565b600060808201905061506c600083018761448b565b615079602083018661448b565b6150866040830185615016565b818103606083015261509881846145e9565b905095945050505050565b600060208201905081810360008301526150bd81846144f8565b905092915050565b600060208201905081810360008301526150df818461456d565b905092915050565b60006020820190506150fc60008301846145da565b92915050565b6000602082019050818103600083015261511c8184614622565b905092915050565b6000602082019050818103600083015261513d8161468c565b9050919050565b6000602082019050818103600083015261515d816146cc565b9050919050565b6000602082019050818103600083015261517d8161470c565b9050919050565b6000602082019050818103600083015261519d81614772565b9050919050565b600060208201905081810360008301526151bd816147d8565b9050919050565b600060208201905081810360008301526151dd81614818565b9050919050565b600060208201905081810360008301526151fd8161487e565b9050919050565b6000602082019050818103600083015261521d816148be565b9050919050565b6000602082019050818103600083015261523d816148fe565b9050919050565b6000602082019050818103600083015261525d81614964565b9050919050565b6000602082019050818103600083015261527d816149ca565b9050919050565b6000602082019050818103600083015261529d81614a30565b9050919050565b600060208201905081810360008301526152bd81614a96565b9050919050565b600060208201905081810360008301526152dd81614afc565b9050919050565b600060208201905081810360008301526152fd81614b3c565b9050919050565b6000602082019050818103600083015261531d81614ba2565b9050919050565b6000602082019050818103600083015261533d81614be2565b9050919050565b6000602082019050818103600083015261535d81614c22565b9050919050565b6000602082019050818103600083015261537d81614c88565b9050919050565b6000602082019050818103600083015261539d81614cee565b9050919050565b600060208201905081810360008301526153bd81614d2e565b9050919050565b600060208201905081810360008301526153dd81614d94565b9050919050565b600060208201905081810360008301526153fd81614dfa565b9050919050565b6000602082019050818103600083015261541d81614e3a565b9050919050565b6000602082019050818103600083015261543e8184614f6b565b905092915050565b600060208201905061545b6000830184615016565b92915050565b600060c0820190506154766000830189615016565b615483602083018861448b565b6154906040830187615016565b61549d6060830186615016565b6154aa60808301856145da565b6154b760a083018461448b565b979650505050505050565b6000604051905081810181811067ffffffffffffffff821117156154e9576154e8615914565b5b8060405250919050565b600067ffffffffffffffff82111561550e5761550d615914565b5b601f19601f8301169050602081019050919050565b600067ffffffffffffffff82111561553e5761553d615914565b5b601f19601f8301169050602081019050919050565b6000819050602082019050919050565b6000819050602082019050919050565b6000819050602082019050919050565b600081519050919050565b600081519050919050565b600081519050919050565b600081519050919050565b600081519050919050565b6000602082019050919050565b6000602082019050919050565b6000602082019050919050565b600082825260208201905092915050565b600082825260208201905092915050565b600082825260208201905092915050565b600082825260208201905092915050565b600082825260208201905092915050565b600081905092915050565b600061564c826157c0565b9150615657836157c0565b9250827fffffffffffffffffffffffffffffffffffffffffffffffffffffffffffffffff0382111561568c5761568b615887565b5b828201905092915050565b60006156a2826157c0565b91506156ad836157c0565b9250826156bd576156bc6158b6565b5b828204905092915050565b60006156d3826157c0565b91506156de836157c0565b9250817fffffffffffffffffffffffffffffffffffffffffffffffffffffffffffffffff048311821515161561571757615716615887565b5b828202905092915050565b600061572d826157c0565b9150615738836157c0565b92508282101561574b5761574a615887565b5b828203905092915050565b6000615761826157a0565b9050919050565b60008115159050919050565b60007fffffffff0000000000000000000000000000000000000000000000000000000082169050919050565b600073ffffffffffffffffffffffffffffffffffffffff82169050919050565b6000819050919050565b82818337600083830152505050565b60005b838110156157f75780820151818401526020810190506157dc565b83811115615806576000848401525b50505050565b6000600282049050600182168061582457607f821691505b60208210811415615838576158376158e5565b5b50919050565b6000615849826157c0565b91507fffffffffffffffffffffffffffffffffffffffffffffffffffffffffffffffff82141561587c5761587b615887565b5b600182019050919050565b7f4e487b7100000000000000000000000000000000000000000000000000000000600052601160045260246000fd5b7f4e487b7100000000000000000000000000000000000000000000000000000000600052601260045260246000fd5b7f4e487b7100000000000000000000000000000000000000000000000000000000600052602260045260246000fd5b7f4e487b7100000000000000000000000000000000000000000000000000000000600052604160045260246000fd5b6000601f19601f8301169050919050565b61595d81615756565b811461596857600080fd5b50565b61597481615768565b811461597f57600080fd5b50565b61598b81615774565b811461599657600080fd5b50565b6159a2816157c0565b81146159ad57600080fd5b5056fea26469706673582212202de4ae0e4f11096ba7554fd9b935f0c1b13a9a2df3776bff08cb0aa9ad43353b64736f6c63430008000033",
  "linkReferences": {},
  "deployedLinkReferences": {}
}