{
  "_format": "hh-sol-artifact-1",
  "contractName": "House",
  "sourceName": "contracts/House.sol",
  "abi": [
    {
      "inputs": [],
      "stateMutability": "nonpayable",
      "type": "constructor"
    },
    {
      "anonymous": false,
      "inputs": [
        {
          "indexed": true,
          "internalType": "address",
          "name": "owner",
          "type": "address"
        },
        {
          "indexed": true,
          "internalType": "address",
          "name": "approved",
          "type": "address"
        },
        {
          "indexed": true,
          "internalType": "uint256",
          "name": "tokenId",
          "type": "uint256"
        }
      ],
      "name": "Approval",
      "type": "event"
    },
    {
      "anonymous": false,
      "inputs": [
        {
          "indexed": true,
          "internalType": "address",
          "name": "owner",
          "type": "address"
        },
        {
          "indexed": true,
          "internalType": "address",
          "name": "operator",
          "type": "address"
        },
        {
          "indexed": false,
          "internalType": "bool",
          "name": "approved",
          "type": "bool"
        }
      ],
      "name": "ApprovalForAll",
      "type": "event"
    },
    {
      "anonymous": false,
      "inputs": [
        {
          "indexed": true,
          "internalType": "address",
          "name": "previousOwner",
          "type": "address"
        },
        {
          "indexed": true,
          "internalType": "address",
          "name": "newOwner",
          "type": "address"
        }
      ],
      "name": "OwnershipTransferred",
      "type": "event"
    },
    {
      "anonymous": false,
      "inputs": [
        {
          "indexed": true,
          "internalType": "address",
          "name": "from",
          "type": "address"
        },
        {
          "indexed": true,
          "internalType": "address",
          "name": "to",
          "type": "address"
        },
        {
          "indexed": true,
          "internalType": "uint256",
          "name": "tokenId",
          "type": "uint256"
        }
      ],
      "name": "Transfer",
      "type": "event"
    },
    {
      "inputs": [],
      "name": "_getMyTokens",
      "outputs": [
        {
          "internalType": "uint256[]",
          "name": "",
          "type": "uint256[]"
        }
      ],
      "stateMutability": "view",
      "type": "function"
    },
    {
      "inputs": [
        {
          "internalType": "uint256",
          "name": "tokenId",
          "type": "uint256"
        }
      ],
      "name": "_getOnSaleStatus",
      "outputs": [
        {
          "internalType": "bool",
          "name": "",
          "type": "bool"
        }
      ],
      "stateMutability": "view",
      "type": "function"
    },
    {
      "inputs": [
        {
          "internalType": "uint256",
          "name": "tokenId",
          "type": "uint256"
        }
      ],
      "name": "_getOnSaleToken",
      "outputs": [
        {
          "components": [
            {
              "internalType": "uint256",
              "name": "tokenId",
              "type": "uint256"
            },
            {
              "internalType": "address",
              "name": "postedBy",
              "type": "address"
            },
            {
              "internalType": "uint256",
              "name": "minimumPrice",
              "type": "uint256"
            },
            {
              "internalType": "uint256",
              "name": "offersCount",
              "type": "uint256"
            },
            {
              "internalType": "bool",
              "name": "isAvailable",
              "type": "bool"
            },
            {
              "internalType": "address",
              "name": "soldTo",
              "type": "address"
            },
            {
              "components": [
                {
                  "internalType": "address",
                  "name": "bidder",
                  "type": "address"
                },
                {
                  "internalType": "uint256",
                  "name": "offerPrice",
                  "type": "uint256"
                }
              ],
              "internalType": "struct House.Offer[]",
              "name": "offers",
              "type": "tuple[]"
            }
          ],
          "internalType": "struct House.SaleToken",
          "name": "",
          "type": "tuple"
        }
      ],
      "stateMutability": "view",
      "type": "function"
    },
    {
      "inputs": [],
      "name": "_getSaleTokens",
      "outputs": [
        {
          "components": [
            {
              "internalType": "uint256",
              "name": "tokenId",
              "type": "uint256"
            },
            {
              "internalType": "address",
              "name": "postedBy",
              "type": "address"
            },
            {
              "internalType": "uint256",
              "name": "minimumPrice",
              "type": "uint256"
            },
            {
              "internalType": "uint256",
              "name": "offersCount",
              "type": "uint256"
            },
            {
              "internalType": "bool",
              "name": "isAvailable",
              "type": "bool"
            },
            {
              "internalType": "address",
              "name": "soldTo",
              "type": "address"
            },
            {
              "components": [
                {
                  "internalType": "address",
                  "name": "bidder",
                  "type": "address"
                },
                {
                  "internalType": "uint256",
                  "name": "offerPrice",
                  "type": "uint256"
                }
              ],
              "internalType": "struct House.Offer[]",
              "name": "offers",
              "type": "tuple[]"
            }
          ],
          "internalType": "struct House.SaleToken[]",
          "name": "",
          "type": "tuple[]"
        }
      ],
      "stateMutability": "view",
      "type": "function"
    },
    {
      "inputs": [
        {
          "internalType": "address",
          "name": "",
          "type": "address"
        },
        {
          "internalType": "uint256",
          "name": "",
          "type": "uint256"
        }
      ],
      "name": "_myTokens",
      "outputs": [
        {
          "internalType": "uint256",
          "name": "",
          "type": "uint256"
        }
      ],
      "stateMutability": "view",
      "type": "function"
    },
    {
      "inputs": [
        {
          "internalType": "address",
          "name": "to",
          "type": "address"
        },
        {
          "internalType": "uint256",
          "name": "tokenId",
          "type": "uint256"
        }
      ],
      "name": "approve",
      "outputs": [],
      "stateMutability": "nonpayable",
      "type": "function"
    },
    {
      "inputs": [
        {
          "internalType": "address",
          "name": "owner",
          "type": "address"
        }
      ],
      "name": "balanceOf",
      "outputs": [
        {
          "internalType": "uint256",
          "name": "",
          "type": "uint256"
        }
      ],
      "stateMutability": "view",
      "type": "function"
    },
    {
      "inputs": [
        {
          "internalType": "uint256",
          "name": "tokenId",
          "type": "uint256"
        }
      ],
      "name": "burn",
      "outputs": [],
      "stateMutability": "nonpayable",
      "type": "function"
    },
    {
      "inputs": [
        {
          "internalType": "uint256",
          "name": "tokenId",
          "type": "uint256"
        }
      ],
      "name": "getApproved",
      "outputs": [
        {
          "internalType": "address",
          "name": "",
          "type": "address"
        }
      ],
      "stateMutability": "view",
      "type": "function"
    },
    {
      "inputs": [
        {
          "internalType": "address",
          "name": "owner",
          "type": "address"
        },
        {
          "internalType": "address",
          "name": "operator",
          "type": "address"
        }
      ],
      "name": "isApprovedForAll",
      "outputs": [
        {
          "internalType": "bool",
          "name": "",
          "type": "bool"
        }
      ],
      "stateMutability": "view",
      "type": "function"
    },
    {
      "inputs": [
        {
          "internalType": "address",
          "name": "_to",
          "type": "address"
        },
        {
          "internalType": "string",
          "name": "_hash",
          "type": "string"
        }
      ],
      "name": "mint",
      "outputs": [
        {
          "internalType": "uint256",
          "name": "",
          "type": "uint256"
        }
      ],
      "stateMutability": "nonpayable",
      "type": "function"
    },
    {
      "inputs": [],
      "name": "name",
      "outputs": [
        {
          "internalType": "string",
          "name": "",
          "type": "string"
        }
      ],
      "stateMutability": "view",
      "type": "function"
    },
    {
      "inputs": [
        {
          "internalType": "uint256",
          "name": "tokenId",
          "type": "uint256"
        }
      ],
      "name": "offer",
      "outputs": [],
      "stateMutability": "payable",
      "type": "function"
    },
    {
      "inputs": [],
      "name": "owner",
      "outputs": [
        {
          "internalType": "address",
          "name": "",
          "type": "address"
        }
      ],
      "stateMutability": "view",
      "type": "function"
    },
    {
      "inputs": [
        {
          "internalType": "uint256",
          "name": "tokenId",
          "type": "uint256"
        }
      ],
      "name": "ownerOf",
      "outputs": [
        {
          "internalType": "address",
          "name": "",
          "type": "address"
        }
      ],
      "stateMutability": "view",
      "type": "function"
    },
    {
      "inputs": [
        {
          "internalType": "uint256",
          "name": "tokenId",
          "type": "uint256"
        },
        {
          "internalType": "uint256",
          "name": "minimumPrice",
          "type": "uint256"
        }
      ],
      "name": "putOnSale",
      "outputs": [],
      "stateMutability": "nonpayable",
      "type": "function"
    },
    {
      "inputs": [],
      "name": "renounceOwnership",
      "outputs": [],
      "stateMutability": "nonpayable",
      "type": "function"
    },
    {
      "inputs": [
        {
          "internalType": "uint256",
          "name": "tokenId",
          "type": "uint256"
        }
      ],
      "name": "revokeOffer",
      "outputs": [],
      "stateMutability": "payable",
      "type": "function"
    },
    {
      "inputs": [
        {
          "internalType": "uint256",
          "name": "tokenId",
          "type": "uint256"
        }
      ],
      "name": "revokeSaleToken",
      "outputs": [],
      "stateMutability": "payable",
      "type": "function"
    },
    {
      "inputs": [
        {
          "internalType": "address",
          "name": "from",
          "type": "address"
        },
        {
          "internalType": "address",
          "name": "to",
          "type": "address"
        },
        {
          "internalType": "uint256",
          "name": "tokenId",
          "type": "uint256"
        }
      ],
      "name": "safeTransferFrom",
      "outputs": [],
      "stateMutability": "nonpayable",
      "type": "function"
    },
    {
      "inputs": [
        {
          "internalType": "address",
          "name": "from",
          "type": "address"
        },
        {
          "internalType": "address",
          "name": "to",
          "type": "address"
        },
        {
          "internalType": "uint256",
          "name": "tokenId",
          "type": "uint256"
        },
        {
          "internalType": "bytes",
          "name": "_data",
          "type": "bytes"
        }
      ],
      "name": "safeTransferFrom",
      "outputs": [],
      "stateMutability": "nonpayable",
      "type": "function"
    },
    {
      "inputs": [
        {
          "internalType": "uint256",
          "name": "",
          "type": "uint256"
        }
      ],
      "name": "saleTokens",
      "outputs": [
        {
          "internalType": "uint256",
          "name": "tokenId",
          "type": "uint256"
        },
        {
          "internalType": "address",
          "name": "postedBy",
          "type": "address"
        },
        {
          "internalType": "uint256",
          "name": "minimumPrice",
          "type": "uint256"
        },
        {
          "internalType": "uint256",
          "name": "offersCount",
          "type": "uint256"
        },
        {
          "internalType": "bool",
          "name": "isAvailable",
          "type": "bool"
        },
        {
          "internalType": "address",
          "name": "soldTo",
          "type": "address"
        }
      ],
      "stateMutability": "view",
      "type": "function"
    },
    {
      "inputs": [
        {
          "internalType": "address",
          "name": "operator",
          "type": "address"
        },
        {
          "internalType": "bool",
          "name": "approved",
          "type": "bool"
        }
      ],
      "name": "setApprovalForAll",
      "outputs": [],
      "stateMutability": "nonpayable",
      "type": "function"
    },
    {
      "inputs": [
        {
          "internalType": "string",
          "name": "baseURI_",
          "type": "string"
        }
      ],
      "name": "setBaseURI",
      "outputs": [],
      "stateMutability": "nonpayable",
      "type": "function"
    },
    {
      "inputs": [
        {
          "internalType": "bytes4",
          "name": "interfaceId",
          "type": "bytes4"
        }
      ],
      "name": "supportsInterface",
      "outputs": [
        {
          "internalType": "bool",
          "name": "",
          "type": "bool"
        }
      ],
      "stateMutability": "view",
      "type": "function"
    },
    {
      "inputs": [],
      "name": "symbol",
      "outputs": [
        {
          "internalType": "string",
          "name": "",
          "type": "string"
        }
      ],
      "stateMutability": "view",
      "type": "function"
    },
    {
      "inputs": [
        {
          "internalType": "uint256",
          "name": "tokenId",
          "type": "uint256"
        }
      ],
      "name": "tokenURI",
      "outputs": [
        {
          "internalType": "string",
          "name": "",
          "type": "string"
        }
      ],
      "stateMutability": "view",
      "type": "function"
    },
    {
      "inputs": [],
      "name": "totalSaleTokens",
      "outputs": [
        {
          "internalType": "uint256",
          "name": "",
          "type": "uint256"
        }
      ],
      "stateMutability": "view",
      "type": "function"
    },
    {
      "inputs": [],
      "name": "totalTokens",
      "outputs": [
        {
          "internalType": "uint256",
          "name": "",
          "type": "uint256"
        }
      ],
      "stateMutability": "view",
      "type": "function"
    },
    {
      "inputs": [
        {
          "internalType": "uint256",
          "name": "tokenId",
          "type": "uint256"
        },
        {
          "internalType": "uint256",
          "name": "offerIndex",
          "type": "uint256"
        }
      ],
      "name": "transfer",
      "outputs": [],
      "stateMutability": "payable",
      "type": "function"
    },
    {
      "inputs": [
        {
          "internalType": "address",
          "name": "from",
          "type": "address"
        },
        {
          "internalType": "address",
          "name": "to",
          "type": "address"
        },
        {
          "internalType": "uint256",
          "name": "tokenId",
          "type": "uint256"
        }
      ],
      "name": "transferFrom",
      "outputs": [],
      "stateMutability": "nonpayable",
      "type": "function"
    },
    {
      "inputs": [
        {
          "internalType": "address",
          "name": "newOwner",
          "type": "address"
        }
      ],
      "name": "transferOwnership",
      "outputs": [],
      "stateMutability": "nonpayable",
      "type": "function"
    }
  ],
  "bytecode": "0x60806040526040518060400160405280600781526020017f697066733a2f2f000000000000000000000000000000000000000000000000008152506008908051906020019062000051929190620001f4565b503480156200005f57600080fd5b506040518060400160405280600c81526020017f5072656d69756d486f75736500000000000000000000000000000000000000008152506040518060400160405280600281526020017f50480000000000000000000000000000000000000000000000000000000000008152508160009080519060200190620000e4929190620001f4565b508060019080519060200190620000fd929190620001f4565b50505062000120620001146200012660201b60201c565b6200012e60201b60201c565b62000309565b600033905090565b6000600660009054906101000a900473ffffffffffffffffffffffffffffffffffffffff16905081600660006101000a81548173ffffffffffffffffffffffffffffffffffffffff021916908373ffffffffffffffffffffffffffffffffffffffff1602179055508173ffffffffffffffffffffffffffffffffffffffff168173ffffffffffffffffffffffffffffffffffffffff167f8be0079c531659141344cd1fd0a4f28419497f9722a3daafe3b4186f6b6457e060405160405180910390a35050565b8280546200020290620002a4565b90600052602060002090601f01602090048101928262000226576000855562000272565b82601f106200024157805160ff191683800117855562000272565b8280016001018555821562000272579182015b828111156200027157825182559160200191906001019062000254565b5b50905062000281919062000285565b5090565b5b80821115620002a057600081600090555060010162000286565b5090565b60006002820490506001821680620002bd57607f821691505b60208210811415620002d457620002d3620002da565b5b50919050565b7f4e487b7100000000000000000000000000000000000000000000000000000000600052602260045260246000fd5b615f5380620003196000396000f3fe6080604052600436106101e35760003560e01c8063715018a611610102578063a4c1431611610095578063d0def52111610064578063d0def521146106e3578063d18d8af514610720578063e985e9c51461074b578063f2fde38b14610788576101e3565b8063a4c1431614610624578063ae83f2d714610661578063b88d4fde1461067d578063c87b56dd146106a6576101e3565b80638da5cb5b116100d15780638da5cb5b1461056357806395d89b411461058e578063a22cb465146105b9578063a4b2a27c146105e2576101e3565b8063715018a6146104da578063761610fc146104f15780637e1c0c091461050d57806382431b0a14610538576101e3565b806342842e0e1161017a57806355f804b31161014957806355f804b3146103fa5780636352211e146104235780636a23e8a71461046057806370a082311461049d576101e3565b806342842e0e1461034057806342966c68146103695780634b166299146103925780634f42697d146103cf576101e3565b80630cf79e0a116101b65780630cf79e0a146102b657806323b872dd146102d257806336f7992b146102fb5780633a6a65ce14610324576101e3565b806301ffc9a7146101e857806306fdde0314610225578063081812fc14610250578063095ea7b31461028d575b600080fd5b3480156101f457600080fd5b5061020f600480360381019061020a91906148e1565b6107b1565b60405161021c91906156ee565b60405180910390f35b34801561023157600080fd5b5061023a610893565b6040516102479190615709565b60405180910390f35b34801561025c57600080fd5b5061027760048036038101906102729190614974565b610925565b6040516102849190615643565b60405180910390f35b34801561029957600080fd5b506102b460048036038101906102af91906148a5565b6109aa565b005b6102d060048036038101906102cb919061499d565b610ac2565b005b3480156102de57600080fd5b506102f960048036038101906102f4919061474b565b611080565b005b34801561030757600080fd5b50610322600480360381019061031d919061499d565b6110e0565b005b61033e60048036038101906103399190614974565b611458565b005b34801561034c57600080fd5b506103676004803603810190610362919061474b565b611b8c565b005b34801561037557600080fd5b50610390600480360381019061038b9190614974565b611bac565b005b34801561039e57600080fd5b506103b960048036038101906103b49190614974565b611d6b565b6040516103c691906156ee565b60405180910390f35b3480156103db57600080fd5b506103e4611ddd565b6040516103f191906156aa565b60405180910390f35b34801561040657600080fd5b50610421600480360381019061041c9190614933565b611fe0565b005b34801561042f57600080fd5b5061044a60048036038101906104459190614974565b612076565b6040516104579190615643565b60405180910390f35b34801561046c57600080fd5b5061048760048036038101906104829190614974565b612128565b6040516104949190615a4b565b60405180910390f35b3480156104a957600080fd5b506104c460048036038101906104bf91906146e6565b61234d565b6040516104d19190615a6d565b60405180910390f35b3480156104e657600080fd5b506104ef612405565b005b61050b60048036038101906105069190614974565b61248d565b005b34801561051957600080fd5b5061052261289a565b60405161052f9190615a6d565b60405180910390f35b34801561054457600080fd5b5061054d6128a0565b60405161055a9190615a6d565b60405180910390f35b34801561056f57600080fd5b506105786128a6565b6040516105859190615643565b60405180910390f35b34801561059a57600080fd5b506105a36128d0565b6040516105b09190615709565b60405180910390f35b3480156105c557600080fd5b506105e060048036038101906105db9190614815565b612962565b005b3480156105ee57600080fd5b5061060960048036038101906106049190614974565b612ae3565b60405161061b96959493929190615a88565b60405180910390f35b34801561063057600080fd5b5061064b600480360381019061064691906148a5565b612b7c565b6040516106589190615a6d565b60405180910390f35b61067b60048036038101906106769190614974565b612bad565b005b34801561068957600080fd5b506106a4600480360381019061069f919061479a565b61310d565b005b3480156106b257600080fd5b506106cd60048036038101906106c89190614974565b61316f565b6040516106da9190615709565b60405180910390f35b3480156106ef57600080fd5b5061070a60048036038101906107059190614851565b613262565b6040516107179190615a6d565b60405180910390f35b34801561072c57600080fd5b506107356133c4565b60405161074291906156cc565b60405180910390f35b34801561075757600080fd5b50610772600480360381019061076d919061470f565b613459565b60405161077f91906156ee565b60405180910390f35b34801561079457600080fd5b506107af60048036038101906107aa91906146e6565b6134ed565b005b60007f80ac58cd000000000000000000000000000000000000000000000000000000007bffffffffffffffffffffffffffffffffffffffffffffffffffffffff1916827bffffffffffffffffffffffffffffffffffffffffffffffffffffffff1916148061087c57507f5b5e139f000000000000000000000000000000000000000000000000000000007bffffffffffffffffffffffffffffffffffffffffffffffffffffffff1916827bffffffffffffffffffffffffffffffffffffffffffffffffffffffff1916145b8061088c575061088b826135e5565b5b9050919050565b6060600080546108a290615da8565b80601f01602080910402602001604051908101604052809291908181526020018280546108ce90615da8565b801561091b5780601f106108f05761010080835404028352916020019161091b565b820191906000526020600020905b8154815290600101906020018083116108fe57829003601f168201915b5050505050905090565b60006109308261364f565b61096f576040517f08c379a0000000000000000000000000000000000000000000000000000000008152600401610966906158eb565b60405180910390fd5b6004600083815260200190815260200160002060009054906101000a900473ffffffffffffffffffffffffffffffffffffffff169050919050565b60006109b582612076565b90508073ffffffffffffffffffffffffffffffffffffffff168373ffffffffffffffffffffffffffffffffffffffff161415610a26576040517f08c379a0000000000000000000000000000000000000000000000000000000008152600401610a1d906159ab565b60405180910390fd5b8073ffffffffffffffffffffffffffffffffffffffff16610a456136bb565b73ffffffffffffffffffffffffffffffffffffffff161480610a745750610a7381610a6e6136bb565b613459565b5b610ab3576040517f08c379a0000000000000000000000000000000000000000000000000000000008152600401610aaa9061584b565b60405180910390fd5b610abd83836136c3565b505050565b81610acc8161364f565b610b0b576040517f08c379a0000000000000000000000000000000000000000000000000000000008152600401610b029061580b565b60405180910390fd5b60001515600b600083815260200190815260200160002060009054906101000a900460ff1615151415610b73576040517f08c379a0000000000000000000000000000000000000000000000000000000008152600401610b6a906159eb565b60405180910390fd5b610b84610b7e6136bb565b8461377c565b610bc3576040517f08c379a0000000000000000000000000000000000000000000000000000000008152600401610bba9061598b565b60405180910390fd5b6000600c6000858152602001908152602001600020549050600060108281548110610c17577f4e487b7100000000000000000000000000000000000000000000000000000000600052603260045260246000fd5b90600052602060002090600602019050600081600301541415610c6f576040517f08c379a0000000000000000000000000000000000000000000000000000000008152600401610c6690615a2b565b60405180910390fd5b600015158160040160009054906101000a900460ff1615151415610cc8576040517f08c379a0000000000000000000000000000000000000000000000000000000008152600401610cbf9061596b565b60405180910390fd5b600081600501905060005b8180549050811015610fe3576000828281548110610d1a577f4e487b7100000000000000000000000000000000000000000000000000000000600052603260045260246000fd5b90600052602060002090600202016040518060400160405290816000820160009054906101000a900473ffffffffffffffffffffffffffffffffffffffff1673ffffffffffffffffffffffffffffffffffffffff1673ffffffffffffffffffffffffffffffffffffffff1681526020016001820154815250509050806020015160096000836000015173ffffffffffffffffffffffffffffffffffffffff1673ffffffffffffffffffffffffffffffffffffffff1681526020019081526020016000206000828254610dec9190615cbe565b9250508190555086821415610f1b57610e0488612076565b73ffffffffffffffffffffffffffffffffffffffff166108fc82602001519081150290604051600060405180830381858888f19350505050158015610e4d573d6000803e3d6000fd5b50600e6000826000015173ffffffffffffffffffffffffffffffffffffffff1673ffffffffffffffffffffffffffffffffffffffff168152602001908152602001600020889080600181540180825580915050600190039060005260206000200160009091909190915055610ecf610ec489612076565b82600001518a611b8c565b80600001518460040160016101000a81548173ffffffffffffffffffffffffffffffffffffffff021916908373ffffffffffffffffffffffffffffffffffffffff160217905550610f6b565b806000015173ffffffffffffffffffffffffffffffffffffffff166108fc82602001519081150290604051600060405180830381858888f19350505050158015610f69573d6000803e3d6000fd5b505b600d60008981526020019081526020016000206000826000015173ffffffffffffffffffffffffffffffffffffffff1673ffffffffffffffffffffffffffffffffffffffff16815260200190815260200160002060006101000a81549060ff0219169055508080610fdb90615dda565b915050610cd3565b50610fee338761385a565b816005016000610ffe919061432c565b60008260040160006101000a81548160ff0219169083151502179055506000600b600088815260200190815260200160002060006101000a81548160ff021916908315150217905550600c6000878152602001908152602001600020600090556001601260008282546110719190615cbe565b92505081905550505050505050565b61109161108b6136bb565b8261377c565b6110d0576040517f08c379a00000000000000000000000000000000000000000000000000000000081526004016110c7906159cb565b60405180910390fd5b6110db838383613a88565b505050565b6110e98261364f565b611128576040517f08c379a000000000000000000000000000000000000000000000000000000000815260040161111f9061580b565b60405180910390fd5b6111306136bb565b73ffffffffffffffffffffffffffffffffffffffff1661114f83612076565b73ffffffffffffffffffffffffffffffffffffffff16146111a5576040517f08c379a000000000000000000000000000000000000000000000000000000000815260040161119c9061598b565b60405180910390fd5b60011515600b600084815260200190815260200160002060009054906101000a900460ff161515141561120d576040517f08c379a00000000000000000000000000000000000000000000000000000000081526004016112049061592b565b60405180910390fd5b6001600b600084815260200190815260200160002060006101000a81548160ff021916908315150217905550601080549050600c60008481526020019081526020016000208190555060008281600001819055506112696136bb565b8160010160006101000a81548173ffffffffffffffffffffffffffffffffffffffff021916908373ffffffffffffffffffffffffffffffffffffffff1602179055508181600201819055506000816003018190555060018160040160006101000a81548160ff0219169083151502179055506010819080600181540180825580915050600190039060005260206000209060060201600090919091909150600082015481600001556001820160009054906101000a900473ffffffffffffffffffffffffffffffffffffffff168160010160006101000a81548173ffffffffffffffffffffffffffffffffffffffff021916908373ffffffffffffffffffffffffffffffffffffffff16021790555060028201548160020155600382015481600301556004820160009054906101000a900460ff168160040160006101000a81548160ff0219169083151502179055506004820160019054906101000a900473ffffffffffffffffffffffffffffffffffffffff168160040160016101000a81548173ffffffffffffffffffffffffffffffffffffffff021916908373ffffffffffffffffffffffffffffffffffffffff1602179055506005820181600501908054611436929190614350565b50505060016012600082825461144c9190615c68565b92505081905550505050565b806114628161364f565b6114a1576040517f08c379a00000000000000000000000000000000000000000000000000000000081526004016114989061580b565b60405180910390fd5b60001515600b600083815260200190815260200160002060009054906101000a900460ff1615151415611509576040517f08c379a0000000000000000000000000000000000000000000000000000000008152600401611500906159eb565b60405180910390fd5b60001515600d600084815260200190815260200160002060003373ffffffffffffffffffffffffffffffffffffffff1673ffffffffffffffffffffffffffffffffffffffff16815260200190815260200160002060009054906101000a900460ff16151514156115ae576040517f08c379a00000000000000000000000000000000000000000000000000000000081526004016115a590615a0b565b60405180910390fd5b6000600c6000848152602001908152602001600020549050600060108281548110611602577f4e487b7100000000000000000000000000000000000000000000000000000000600052603260045260246000fd5b90600052602060002090600602019050600015158160040160009054906101000a900460ff161515141561166b576040517f08c379a00000000000000000000000000000000000000000000000000000000081526004016116629061596b565b60405180910390fd5b6000816003015414156116b3576040517f08c379a00000000000000000000000000000000000000000000000000000000081526004016116aa90615a2b565b60405180910390fd5b600081600501905060006001905060005b8115611785573373ffffffffffffffffffffffffffffffffffffffff1683828154811061171a577f4e487b7100000000000000000000000000000000000000000000000000000000600052603260045260246000fd5b906000526020600020906002020160000160009054906101000a900473ffffffffffffffffffffffffffffffffffffffff1673ffffffffffffffffffffffffffffffffffffffff161461177b576001816117749190615c68565b9050611780565b600091505b6116c4565b8281815481106117be577f4e487b7100000000000000000000000000000000000000000000000000000000600052603260045260246000fd5b906000526020600020906002020160010154600960003373ffffffffffffffffffffffffffffffffffffffff1673ffffffffffffffffffffffffffffffffffffffff168152602001908152602001600020600082825461181e9190615cbe565b925050819055503373ffffffffffffffffffffffffffffffffffffffff166108fc848381548110611878577f4e487b7100000000000000000000000000000000000000000000000000000000600052603260045260246000fd5b9060005260206000209060020201600101549081150290604051600060405180830381858888f193505050501580156118b5573d6000803e3d6000fd5b506000600d600089815260200190815260200160002060003373ffffffffffffffffffffffffffffffffffffffff1673ffffffffffffffffffffffffffffffffffffffff16815260200190815260200160002060006101000a81548160ff02191690831515021790555060008190505b600184805490506119369190615cbe565b811015611a5e578360018261194b9190615c68565b81548110611982577f4e487b7100000000000000000000000000000000000000000000000000000000600052603260045260246000fd5b90600052602060002090600202018482815481106119c9577f4e487b7100000000000000000000000000000000000000000000000000000000600052603260045260246000fd5b90600052602060002090600202016000820160009054906101000a900473ffffffffffffffffffffffffffffffffffffffff168160000160006101000a81548173ffffffffffffffffffffffffffffffffffffffff021916908373ffffffffffffffffffffffffffffffffffffffff160217905550600182015481600101559050508080611a5690615dda565b915050611925565b508260018480549050611a719190615cbe565b81548110611aa8577f4e487b7100000000000000000000000000000000000000000000000000000000600052603260045260246000fd5b9060005260206000209060020201600080820160006101000a81549073ffffffffffffffffffffffffffffffffffffffff02191690556001820160009055505082805480611b1f577f4e487b7100000000000000000000000000000000000000000000000000000000600052603160045260246000fd5b6001900381819060005260206000209060020201600080820160006101000a81549073ffffffffffffffffffffffffffffffffffffffff02191690556001820160009055505090556001846003016000828254611b7c9190615cbe565b9250508190555050505050505050565b611ba78383836040518060200160405280600081525061310d565b505050565b611bb58161364f565b611bf4576040517f08c379a0000000000000000000000000000000000000000000000000000000008152600401611beb9061580b565b60405180910390fd5b611c05611bff6136bb565b8261377c565b611c44576040517f08c379a0000000000000000000000000000000000000000000000000000000008152600401611c3b9061598b565b60405180910390fd5b6000600f60008381526020019081526020016000208054611c6490615da8565b80601f0160208091040260200160405190810160405280929190818152602001828054611c9090615da8565b8015611cdd5780601f10611cb257610100808354040283529160200191611cdd565b820191906000526020600020905b815481529060010190602001808311611cc057829003601f168201915b505050505090506000600a82604051611cf6919061562c565b908152602001604051809103902060006101000a81548160ff021916908315150217905550600f60008381526020019081526020016000206000611d3a9190614419565b611d44338361385a565b600160116000828254611d579190615cbe565b92505081905550611d6782613ce4565b5050565b6000611d768261364f565b611db5576040517f08c379a0000000000000000000000000000000000000000000000000000000008152600401611dac9061580b565b60405180910390fd5b600b600083815260200190815260200160002060009054906101000a900460ff169050919050565b60606010805480602002602001604051908101604052809291908181526020016000905b82821015611fd757838290600052602060002090600602016040518060e0016040529081600082015481526020016001820160009054906101000a900473ffffffffffffffffffffffffffffffffffffffff1673ffffffffffffffffffffffffffffffffffffffff1673ffffffffffffffffffffffffffffffffffffffff16815260200160028201548152602001600382015481526020016004820160009054906101000a900460ff161515151581526020016004820160019054906101000a900473ffffffffffffffffffffffffffffffffffffffff1673ffffffffffffffffffffffffffffffffffffffff1673ffffffffffffffffffffffffffffffffffffffff16815260200160058201805480602002602001604051908101604052809291908181526020016000905b82821015611fc057838290600052602060002090600202016040518060400160405290816000820160009054906101000a900473ffffffffffffffffffffffffffffffffffffffff1673ffffffffffffffffffffffffffffffffffffffff1673ffffffffffffffffffffffffffffffffffffffff16815260200160018201548152505081526020019060010190611f2e565b505050508152505081526020019060010190611e01565b50505050905090565b611fe86136bb565b73ffffffffffffffffffffffffffffffffffffffff166120066128a6565b73ffffffffffffffffffffffffffffffffffffffff161461205c576040517f08c379a00000000000000000000000000000000000000000000000000000000081526004016120539061590b565b60405180910390fd5b8060089080519060200190612072929190614459565b5050565b6000806002600084815260200190815260200160002060009054906101000a900473ffffffffffffffffffffffffffffffffffffffff169050600073ffffffffffffffffffffffffffffffffffffffff168173ffffffffffffffffffffffffffffffffffffffff16141561211f576040517f08c379a0000000000000000000000000000000000000000000000000000000008152600401612116906158ab565b60405180910390fd5b80915050919050565b6121306144df565b6000600c6000848152602001908152602001600020549050600060108281548110612184577f4e487b7100000000000000000000000000000000000000000000000000000000600052603260045260246000fd5b90600052602060002090600602016040518060e0016040529081600082015481526020016001820160009054906101000a900473ffffffffffffffffffffffffffffffffffffffff1673ffffffffffffffffffffffffffffffffffffffff1673ffffffffffffffffffffffffffffffffffffffff16815260200160028201548152602001600382015481526020016004820160009054906101000a900460ff161515151581526020016004820160019054906101000a900473ffffffffffffffffffffffffffffffffffffffff1673ffffffffffffffffffffffffffffffffffffffff1673ffffffffffffffffffffffffffffffffffffffff16815260200160058201805480602002602001604051908101604052809291908181526020016000905b8282101561233957838290600052602060002090600202016040518060400160405290816000820160009054906101000a900473ffffffffffffffffffffffffffffffffffffffff1673ffffffffffffffffffffffffffffffffffffffff1673ffffffffffffffffffffffffffffffffffffffff168152602001600182015481525050815260200190600101906122a7565b505050508152505090508092505050919050565b60008073ffffffffffffffffffffffffffffffffffffffff168273ffffffffffffffffffffffffffffffffffffffff1614156123be576040517f08c379a00000000000000000000000000000000000000000000000000000000081526004016123b59061588b565b60405180910390fd5b600360008373ffffffffffffffffffffffffffffffffffffffff1673ffffffffffffffffffffffffffffffffffffffff168152602001908152602001600020549050919050565b61240d6136bb565b73ffffffffffffffffffffffffffffffffffffffff1661242b6128a6565b73ffffffffffffffffffffffffffffffffffffffff1614612481576040517f08c379a00000000000000000000000000000000000000000000000000000000081526004016124789061590b565b60405180910390fd5b61248b6000613df5565b565b806124978161364f565b6124d6576040517f08c379a00000000000000000000000000000000000000000000000000000000081526004016124cd9061580b565b60405180910390fd5b60001515600b600083815260200190815260200160002060009054906101000a900460ff161515141561253e576040517f08c379a0000000000000000000000000000000000000000000000000000000008152600401612535906159eb565b60405180910390fd5b6000151561255361254d6136bb565b8461377c565b151514612595576040517f08c379a000000000000000000000000000000000000000000000000000000000815260040161258c9061586b565b60405180910390fd5b60011515600d600084815260200190815260200160002060003373ffffffffffffffffffffffffffffffffffffffff1673ffffffffffffffffffffffffffffffffffffffff16815260200190815260200160002060009054906101000a900460ff161515141561263a576040517f08c379a00000000000000000000000000000000000000000000000000000000081526004016126319061572b565b60405180910390fd5b6001600d600084815260200190815260200160002060003373ffffffffffffffffffffffffffffffffffffffff1673ffffffffffffffffffffffffffffffffffffffff16815260200190815260200160002060006101000a81548160ff0219169083151502179055506000600c60008481526020019081526020016000205490506000601082815481106126f7577f4e487b7100000000000000000000000000000000000000000000000000000000600052603260045260246000fd5b90600052602060002090600602019050806002015434101561271857600080fd5b600015158160040160009054906101000a900460ff1615151415612771576040517f08c379a00000000000000000000000000000000000000000000000000000000081526004016127689061596b565b60405180910390fd5b600060405180604001604052803373ffffffffffffffffffffffffffffffffffffffff1681526020013481525090508160050181908060018154018082558091505060019003906000526020600020906002020160009091909190915060008201518160000160006101000a81548173ffffffffffffffffffffffffffffffffffffffff021916908373ffffffffffffffffffffffffffffffffffffffff16021790555060208201518160010155505060018260030160008282546128369190615c68565b9250508190555034600960003373ffffffffffffffffffffffffffffffffffffffff1673ffffffffffffffffffffffffffffffffffffffff168152602001908152602001600020600082825461288c9190615c68565b925050819055505050505050565b60115481565b60125481565b6000600660009054906101000a900473ffffffffffffffffffffffffffffffffffffffff16905090565b6060600180546128df90615da8565b80601f016020809104026020016040519081016040528092919081815260200182805461290b90615da8565b80156129585780601f1061292d57610100808354040283529160200191612958565b820191906000526020600020905b81548152906001019060200180831161293b57829003601f168201915b5050505050905090565b61296a6136bb565b73ffffffffffffffffffffffffffffffffffffffff168273ffffffffffffffffffffffffffffffffffffffff1614156129d8576040517f08c379a00000000000000000000000000000000000000000000000000000000081526004016129cf906157eb565b60405180910390fd5b80600560006129e56136bb565b73ffffffffffffffffffffffffffffffffffffffff1673ffffffffffffffffffffffffffffffffffffffff16815260200190815260200160002060008473ffffffffffffffffffffffffffffffffffffffff1673ffffffffffffffffffffffffffffffffffffffff16815260200190815260200160002060006101000a81548160ff0219169083151502179055508173ffffffffffffffffffffffffffffffffffffffff16612a926136bb565b73ffffffffffffffffffffffffffffffffffffffff167f17307eab39ab6107e8899845ad3d59bd9653f200f220920489ca2b5937696c3183604051612ad791906156ee565b60405180910390a35050565b60108181548110612af357600080fd5b90600052602060002090600602016000915090508060000154908060010160009054906101000a900473ffffffffffffffffffffffffffffffffffffffff16908060020154908060030154908060040160009054906101000a900460ff16908060040160019054906101000a900473ffffffffffffffffffffffffffffffffffffffff16905086565b600e6020528160005260406000208181548110612b9857600080fd5b90600052602060002001600091509150505481565b80612bb78161364f565b612bf6576040517f08c379a0000000000000000000000000000000000000000000000000000000008152600401612bed9061580b565b60405180910390fd5b60001515600b600083815260200190815260200160002060009054906101000a900460ff1615151415612c5e576040517f08c379a0000000000000000000000000000000000000000000000000000000008152600401612c55906159eb565b60405180910390fd5b612c6f612c696136bb565b8361377c565b612cae576040517f08c379a0000000000000000000000000000000000000000000000000000000008152600401612ca59061598b565b60405180910390fd5b6000600c6000848152602001908152602001600020549050600060108281548110612d02577f4e487b7100000000000000000000000000000000000000000000000000000000600052603260045260246000fd5b90600052602060002090600602019050600015158160040160009054906101000a900460ff1615151415612d6b576040517f08c379a0000000000000000000000000000000000000000000000000000000008152600401612d629061596b565b60405180910390fd5b60008160030154111561308d57600081600501905060005b818054905081101561307a57818181548110612dc8577f4e487b7100000000000000000000000000000000000000000000000000000000600052603260045260246000fd5b90600052602060002090600202016001015460096000848481548110612e17577f4e487b7100000000000000000000000000000000000000000000000000000000600052603260045260246000fd5b906000526020600020906002020160000160009054906101000a900473ffffffffffffffffffffffffffffffffffffffff1673ffffffffffffffffffffffffffffffffffffffff1673ffffffffffffffffffffffffffffffffffffffff1681526020019081526020016000206000828254612e929190615cbe565b92505081905550818181548110612ed2577f4e487b7100000000000000000000000000000000000000000000000000000000600052603260045260246000fd5b906000526020600020906002020160000160009054906101000a900473ffffffffffffffffffffffffffffffffffffffff1673ffffffffffffffffffffffffffffffffffffffff166108fc838381548110612f56577f4e487b7100000000000000000000000000000000000000000000000000000000600052603260045260246000fd5b9060005260206000209060020201600101549081150290604051600060405180830381858888f19350505050158015612f93573d6000803e3d6000fd5b506000600d60008881526020019081526020016000206000848481548110612fe4577f4e487b7100000000000000000000000000000000000000000000000000000000600052603260045260246000fd5b906000526020600020906002020160000160009054906101000a900473ffffffffffffffffffffffffffffffffffffffff1673ffffffffffffffffffffffffffffffffffffffff1673ffffffffffffffffffffffffffffffffffffffff16815260200190815260200160002060006101000a81548160ff021916908315150217905550808061307290615dda565b915050612d83565b5081600501600061308b919061432c565b505b6000600b600086815260200190815260200160002060006101000a81548160ff021916908315150217905550600c60008381526020019081526020016000206000905560008160040160006101000a81548160ff0219169083151502179055506001601260008282546131009190615cbe565b9250508190555050505050565b61311e6131186136bb565b8361377c565b61315d576040517f08c379a0000000000000000000000000000000000000000000000000000000008152600401613154906159cb565b60405180910390fd5b61316984848484613ebb565b50505050565b606061317a8261364f565b6131b9576040517f08c379a00000000000000000000000000000000000000000000000000000000081526004016131b09061580b565b60405180910390fd5b6000600f600084815260200190815260200160002080546131d990615da8565b80601f016020809104026020016040519081016040528092919081815260200182805461320590615da8565b80156132525780601f1061322757610100808354040283529160200191613252565b820191906000526020600020905b81548152906001019060200180831161323557829003601f168201915b5050505050905080915050919050565b600060011515600a83604051613278919061562c565b908152602001604051809103902060009054906101000a900460ff16151514156132d7576040517f08c379a00000000000000000000000000000000000000000000000000000000081526004016132ce9061574b565b60405180910390fd5b6001600a836040516132e9919061562c565b908152602001604051809103902060006101000a81548160ff0219169083151502179055506133186007613f17565b60006133246007613f2d565b90506133308482613f3b565b61333a8184614109565b600e60008573ffffffffffffffffffffffffffffffffffffffff1673ffffffffffffffffffffffffffffffffffffffff1681526020019081526020016000208190806001815401808255809150506001900390600052602060002001600090919091909150556001601160008282546133b39190615c68565b925050819055508091505092915050565b6060600e60003373ffffffffffffffffffffffffffffffffffffffff1673ffffffffffffffffffffffffffffffffffffffff16815260200190815260200160002080548060200260200160405190810160405280929190818152602001828054801561344f57602002820191906000526020600020905b81548152602001906001019080831161343b575b5050505050905090565b6000600560008473ffffffffffffffffffffffffffffffffffffffff1673ffffffffffffffffffffffffffffffffffffffff16815260200190815260200160002060008373ffffffffffffffffffffffffffffffffffffffff1673ffffffffffffffffffffffffffffffffffffffff16815260200190815260200160002060009054906101000a900460ff16905092915050565b6134f56136bb565b73ffffffffffffffffffffffffffffffffffffffff166135136128a6565b73ffffffffffffffffffffffffffffffffffffffff1614613569576040517f08c379a00000000000000000000000000000000000000000000000000000000081526004016135609061590b565b60405180910390fd5b600073ffffffffffffffffffffffffffffffffffffffff168173ffffffffffffffffffffffffffffffffffffffff1614156135d9576040517f08c379a00000000000000000000000000000000000000000000000000000000081526004016135d09061578b565b60405180910390fd5b6135e281613df5565b50565b60007f01ffc9a7000000000000000000000000000000000000000000000000000000007bffffffffffffffffffffffffffffffffffffffffffffffffffffffff1916827bffffffffffffffffffffffffffffffffffffffffffffffffffffffff1916149050919050565b60008073ffffffffffffffffffffffffffffffffffffffff166002600084815260200190815260200160002060009054906101000a900473ffffffffffffffffffffffffffffffffffffffff1673ffffffffffffffffffffffffffffffffffffffff1614159050919050565b600033905090565b816004600083815260200190815260200160002060006101000a81548173ffffffffffffffffffffffffffffffffffffffff021916908373ffffffffffffffffffffffffffffffffffffffff160217905550808273ffffffffffffffffffffffffffffffffffffffff1661373683612076565b73ffffffffffffffffffffffffffffffffffffffff167f8c5be1e5ebec7d5bd14f71427d1e84f3dd0314c0f7b2291e5b200ac8c7c3b92560405160405180910390a45050565b60006137878261364f565b6137c6576040517f08c379a00000000000000000000000000000000000000000000000000000000081526004016137bd9061582b565b60405180910390fd5b60006137d183612076565b90508073ffffffffffffffffffffffffffffffffffffffff168473ffffffffffffffffffffffffffffffffffffffff16148061384057508373ffffffffffffffffffffffffffffffffffffffff1661382884610925565b73ffffffffffffffffffffffffffffffffffffffff16145b8061385157506138508185613459565b5b91505092915050565b6000600e60008473ffffffffffffffffffffffffffffffffffffffff1673ffffffffffffffffffffffffffffffffffffffff168152602001908152602001600020905060006001905060005b811561391457838382815481106138e6577f4e487b7100000000000000000000000000000000000000000000000000000000600052603260045260246000fd5b90600052602060002001541461390a576001816139039190615c68565b905061390f565b600091505b6138a6565b60008190505b6001848054905061392b9190615cbe565b8110156139dc57836001826139409190615c68565b81548110613977577f4e487b7100000000000000000000000000000000000000000000000000000000600052603260045260246000fd5b90600052602060002001548482815481106139bb577f4e487b7100000000000000000000000000000000000000000000000000000000600052603260045260246000fd5b906000526020600020018190555080806139d490615dda565b91505061391a565b5082600184805490506139ef9190615cbe565b81548110613a26577f4e487b7100000000000000000000000000000000000000000000000000000000600052603260045260246000fd5b906000526020600020016000905582805480613a6b577f4e487b7100000000000000000000000000000000000000000000000000000000600052603160045260246000fd5b600190038181906000526020600020016000905590555050505050565b8273ffffffffffffffffffffffffffffffffffffffff16613aa882612076565b73ffffffffffffffffffffffffffffffffffffffff1614613afe576040517f08c379a0000000000000000000000000000000000000000000000000000000008152600401613af59061594b565b60405180910390fd5b600073ffffffffffffffffffffffffffffffffffffffff168273ffffffffffffffffffffffffffffffffffffffff161415613b6e576040517f08c379a0000000000000000000000000000000000000000000000000000000008152600401613b65906157cb565b60405180910390fd5b613b7983838361417d565b613b846000826136c3565b6001600360008573ffffffffffffffffffffffffffffffffffffffff1673ffffffffffffffffffffffffffffffffffffffff1681526020019081526020016000206000828254613bd49190615cbe565b925050819055506001600360008473ffffffffffffffffffffffffffffffffffffffff1673ffffffffffffffffffffffffffffffffffffffff1681526020019081526020016000206000828254613c2b9190615c68565b92505081905550816002600083815260200190815260200160002060006101000a81548173ffffffffffffffffffffffffffffffffffffffff021916908373ffffffffffffffffffffffffffffffffffffffff160217905550808273ffffffffffffffffffffffffffffffffffffffff168473ffffffffffffffffffffffffffffffffffffffff167fddf252ad1be2c89b69c2b068fc378daa952ba7f163c4a11628f55a4df523b3ef60405160405180910390a4505050565b6000613cef82612076565b9050613cfd8160008461417d565b613d086000836136c3565b6001600360008373ffffffffffffffffffffffffffffffffffffffff1673ffffffffffffffffffffffffffffffffffffffff1681526020019081526020016000206000828254613d589190615cbe565b925050819055506002600083815260200190815260200160002060006101000a81549073ffffffffffffffffffffffffffffffffffffffff021916905581600073ffffffffffffffffffffffffffffffffffffffff168273ffffffffffffffffffffffffffffffffffffffff167fddf252ad1be2c89b69c2b068fc378daa952ba7f163c4a11628f55a4df523b3ef60405160405180910390a45050565b6000600660009054906101000a900473ffffffffffffffffffffffffffffffffffffffff16905081600660006101000a81548173ffffffffffffffffffffffffffffffffffffffff021916908373ffffffffffffffffffffffffffffffffffffffff1602179055508173ffffffffffffffffffffffffffffffffffffffff168173ffffffffffffffffffffffffffffffffffffffff167f8be0079c531659141344cd1fd0a4f28419497f9722a3daafe3b4186f6b6457e060405160405180910390a35050565b613ec6848484613a88565b613ed284848484614182565b613f11576040517f08c379a0000000000000000000000000000000000000000000000000000000008152600401613f089061576b565b60405180910390fd5b50505050565b6001816000016000828254019250508190555050565b600081600001549050919050565b600073ffffffffffffffffffffffffffffffffffffffff168273ffffffffffffffffffffffffffffffffffffffff161415613fab576040517f08c379a0000000000000000000000000000000000000000000000000000000008152600401613fa2906158cb565b60405180910390fd5b613fb48161364f565b15613ff4576040517f08c379a0000000000000000000000000000000000000000000000000000000008152600401613feb906157ab565b60405180910390fd5b6140006000838361417d565b6001600360008473ffffffffffffffffffffffffffffffffffffffff1673ffffffffffffffffffffffffffffffffffffffff16815260200190815260200160002060008282546140509190615c68565b92505081905550816002600083815260200190815260200160002060006101000a81548173ffffffffffffffffffffffffffffffffffffffff021916908373ffffffffffffffffffffffffffffffffffffffff160217905550808273ffffffffffffffffffffffffffffffffffffffff16600073ffffffffffffffffffffffffffffffffffffffff167fddf252ad1be2c89b69c2b068fc378daa952ba7f163c4a11628f55a4df523b3ef60405160405180910390a45050565b6141128261364f565b614151576040517f08c379a00000000000000000000000000000000000000000000000000000000081526004016141489061580b565b60405180910390fd5b80600f60008481526020019081526020016000209080519060200190614178929190614459565b505050565b505050565b60006141a38473ffffffffffffffffffffffffffffffffffffffff16614319565b1561430c578373ffffffffffffffffffffffffffffffffffffffff1663150b7a026141cc6136bb565b8786866040518563ffffffff1660e01b81526004016141ee949392919061565e565b602060405180830381600087803b15801561420857600080fd5b505af192505050801561423957506040513d601f19601f82011682018060405250810190614236919061490a565b60015b6142bc573d8060008114614269576040519150601f19603f3d011682016040523d82523d6000602084013e61426e565b606091505b506000815114156142b4576040517f08c379a00000000000000000000000000000000000000000000000000000000081526004016142ab9061576b565b60405180910390fd5b805181602001fd5b63150b7a0260e01b7bffffffffffffffffffffffffffffffffffffffffffffffffffffffff1916817bffffffffffffffffffffffffffffffffffffffffffffffffffffffff191614915050614311565b600190505b949350505050565b600080823b905060008111915050919050565b508054600082556002029060005260206000209081019061434d919061454a565b50565b8280548282559060005260206000209060020281019282156144085760005260206000209160020282015b828111156144075782826000820160009054906101000a900473ffffffffffffffffffffffffffffffffffffffff168160000160006101000a81548173ffffffffffffffffffffffffffffffffffffffff021916908373ffffffffffffffffffffffffffffffffffffffff1602179055506001820154816001015550509160020191906002019061437b565b5b509050614415919061454a565b5090565b50805461442590615da8565b6000825580601f106144375750614456565b601f0160209004906000526020600020908101906144559190614590565b5b50565b82805461446590615da8565b90600052602060002090601f01602090048101928261448757600085556144ce565b82601f106144a057805160ff19168380011785556144ce565b828001600101855582156144ce579182015b828111156144cd5782518255916020019190600101906144b2565b5b5090506144db9190614590565b5090565b6040518060e0016040528060008152602001600073ffffffffffffffffffffffffffffffffffffffff1681526020016000815260200160008152602001600015158152602001600073ffffffffffffffffffffffffffffffffffffffff168152602001606081525090565b5b8082111561458c57600080820160006101000a81549073ffffffffffffffffffffffffffffffffffffffff021916905560018201600090555060020161454b565b5090565b5b808211156145a9576000816000905550600101614591565b5090565b60006145c06145bb84615b1a565b615ae9565b9050828152602081018484840111156145d857600080fd5b6145e3848285615d66565b509392505050565b60006145fe6145f984615b4a565b615ae9565b90508281526020810184848401111561461657600080fd5b614621848285615d66565b509392505050565b60008135905061463881615ec1565b92915050565b60008135905061464d81615ed8565b92915050565b60008135905061466281615eef565b92915050565b60008151905061467781615eef565b92915050565b600082601f83011261468e57600080fd5b813561469e8482602086016145ad565b91505092915050565b600082601f8301126146b857600080fd5b81356146c88482602086016145eb565b91505092915050565b6000813590506146e081615f06565b92915050565b6000602082840312156146f857600080fd5b600061470684828501614629565b91505092915050565b6000806040838503121561472257600080fd5b600061473085828601614629565b925050602061474185828601614629565b9150509250929050565b60008060006060848603121561476057600080fd5b600061476e86828701614629565b935050602061477f86828701614629565b9250506040614790868287016146d1565b9150509250925092565b600080600080608085870312156147b057600080fd5b60006147be87828801614629565b94505060206147cf87828801614629565b93505060406147e0878288016146d1565b925050606085013567ffffffffffffffff8111156147fd57600080fd5b6148098782880161467d565b91505092959194509250565b6000806040838503121561482857600080fd5b600061483685828601614629565b92505060206148478582860161463e565b9150509250929050565b6000806040838503121561486457600080fd5b600061487285828601614629565b925050602083013567ffffffffffffffff81111561488f57600080fd5b61489b858286016146a7565b9150509250929050565b600080604083850312156148b857600080fd5b60006148c685828601614629565b92505060206148d7858286016146d1565b9150509250929050565b6000602082840312156148f357600080fd5b600061490184828501614653565b91505092915050565b60006020828403121561491c57600080fd5b600061492a84828501614668565b91505092915050565b60006020828403121561494557600080fd5b600082013567ffffffffffffffff81111561495f57600080fd5b61496b848285016146a7565b91505092915050565b60006020828403121561498657600080fd5b6000614994848285016146d1565b91505092915050565b600080604083850312156149b057600080fd5b60006149be858286016146d1565b92505060206149cf858286016146d1565b9150509250929050565b60006149e583836154a7565b60408301905092915050565b60006149fd83836154d6565b905092915050565b6000614a11838361560e565b60208301905092915050565b614a2681615cf2565b82525050565b614a3581615cf2565b82525050565b6000614a4682615baa565b614a508185615c08565b9350614a5b83615b7a565b8060005b83811015614a8c578151614a7388826149d9565b9750614a7e83615be1565b925050600181019050614a5f565b5085935050505092915050565b6000614aa482615bb5565b614aae8185615c19565b935083602082028501614ac085615b8a565b8060005b85811015614afc5784840389528151614add85826149f1565b9450614ae883615bee565b925060208a01995050600181019050614ac4565b50829750879550505050505092915050565b6000614b1982615bc0565b614b238185615c2a565b9350614b2e83615b9a565b8060005b83811015614b5f578151614b468882614a05565b9750614b5183615bfb565b925050600181019050614b32565b5085935050505092915050565b614b7581615d04565b82525050565b614b8481615d04565b82525050565b6000614b9582615bcb565b614b9f8185615c3b565b9350614baf818560208601615d75565b614bb881615eb0565b840191505092915050565b6000614bce82615bd6565b614bd88185615c4c565b9350614be8818560208601615d75565b614bf181615eb0565b840191505092915050565b6000614c0782615bd6565b614c118185615c5d565b9350614c21818560208601615d75565b80840191505092915050565b6000614c3a601f83615c4c565b91507f596f752068617665206f66666572656420666f72207468697320746f6b656e006000830152602082019050919050565b6000614c7a601983615c4c565b91507f596f757220746f6b656e20616c726561647920657869737473000000000000006000830152602082019050919050565b6000614cba603283615c4c565b91507f4552433732313a207472616e7366657220746f206e6f6e20455243373231526560008301527f63656976657220696d706c656d656e74657200000000000000000000000000006020830152604082019050919050565b6000614d20602683615c4c565b91507f4f776e61626c653a206e6577206f776e657220697320746865207a65726f206160008301527f64647265737300000000000000000000000000000000000000000000000000006020830152604082019050919050565b6000614d86601c83615c4c565b91507f4552433732313a20746f6b656e20616c7265616479206d696e746564000000006000830152602082019050919050565b6000614dc6602483615c4c565b91507f4552433732313a207472616e7366657220746f20746865207a65726f2061646460008301527f72657373000000000000000000000000000000000000000000000000000000006020830152604082019050919050565b6000614e2c601983615c4c565b91507f4552433732313a20617070726f766520746f2063616c6c6572000000000000006000830152602082019050919050565b6000614e6c601483615c4c565b91507f546f6b656e20646f6573206e6f742065786973740000000000000000000000006000830152602082019050919050565b6000614eac602c83615c4c565b91507f4552433732313a206f70657261746f7220717565727920666f72206e6f6e657860008301527f697374656e7420746f6b656e00000000000000000000000000000000000000006020830152604082019050919050565b6000614f12603883615c4c565b91507f4552433732313a20617070726f76652063616c6c6572206973206e6f74206f7760008301527f6e6572206e6f7220617070726f76656420666f7220616c6c00000000000000006020830152604082019050919050565b6000614f78602383615c4c565b91507f596f752063616e206e6f74206f6666657220746f20796f7572206f776e20746f60008301527f6b656e00000000000000000000000000000000000000000000000000000000006020830152604082019050919050565b6000614fde602a83615c4c565b91507f4552433732313a2062616c616e636520717565727920666f7220746865207a6560008301527f726f2061646472657373000000000000000000000000000000000000000000006020830152604082019050919050565b6000615044602983615c4c565b91507f4552433732313a206f776e657220717565727920666f72206e6f6e657869737460008301527f656e7420746f6b656e00000000000000000000000000000000000000000000006020830152604082019050919050565b60006150aa602083615c4c565b91507f4552433732313a206d696e7420746f20746865207a65726f20616464726573736000830152602082019050919050565b60006150ea602c83615c4c565b91507f4552433732313a20617070726f76656420717565727920666f72206e6f6e657860008301527f697374656e7420746f6b656e00000000000000000000000000000000000000006020830152604082019050919050565b6000615150602083615c4c565b91507f4f776e61626c653a2063616c6c6572206973206e6f7420746865206f776e65726000830152602082019050919050565b6000615190601883615c4c565b91507f546f6b656e20697320616c7265616479206f6e2073616c6500000000000000006000830152602082019050919050565b60006151d0602983615c4c565b91507f4552433732313a207472616e73666572206f6620746f6b656e2074686174206960008301527f73206e6f74206f776e00000000000000000000000000000000000000000000006020830152604082019050919050565b6000615236602583615c4c565b91507f546f6b656e206973206e6f7420666f722073616c6520696e207468697320617560008301527f6374696f6e0000000000000000000000000000000000000000000000000000006020830152604082019050919050565b600061529c601683615c4c565b91507f596f7520617265206e6f7420617574686f72697a6564000000000000000000006000830152602082019050919050565b60006152dc602183615c4c565b91507f4552433732313a20617070726f76616c20746f2063757272656e74206f776e6560008301527f72000000000000000000000000000000000000000000000000000000000000006020830152604082019050919050565b6000615342603183615c4c565b91507f4552433732313a207472616e736665722063616c6c6572206973206e6f74206f60008301527f776e6572206e6f7220617070726f7665640000000000000000000000000000006020830152604082019050919050565b60006153a8601483615c4c565b91507f546f6b656e206973206e6f74206f6e2073616c650000000000000000000000006000830152602082019050919050565b60006153e8602383615c4c565b91507f596f752068617665206e6f74206f66666572656420666f72207468697320746f60008301527f6b656e00000000000000000000000000000000000000000000000000000000006020830152604082019050919050565b600061544e602383615c4c565b91507f596f757220746f6b656e20686173206e6f74206265656e206f6666657265642060008301527f79657400000000000000000000000000000000000000000000000000000000006020830152604082019050919050565b6040820160008201516154bd6000850182614a1d565b5060208201516154d0602085018261560e565b50505050565b600060e0830160008301516154ee600086018261560e565b5060208301516155016020860182614a1d565b506040830151615514604086018261560e565b506060830151615527606086018261560e565b50608083015161553a6080860182614b6c565b5060a083015161554d60a0860182614a1d565b5060c083015184820360c08601526155658282614a3b565b9150508091505092915050565b600060e08301600083015161558a600086018261560e565b50602083015161559d6020860182614a1d565b5060408301516155b0604086018261560e565b5060608301516155c3606086018261560e565b5060808301516155d66080860182614b6c565b5060a08301516155e960a0860182614a1d565b5060c083015184820360c08601526156018282614a3b565b9150508091505092915050565b61561781615d5c565b82525050565b61562681615d5c565b82525050565b60006156388284614bfc565b915081905092915050565b60006020820190506156586000830184614a2c565b92915050565b60006080820190506156736000830187614a2c565b6156806020830186614a2c565b61568d604083018561561d565b818103606083015261569f8184614b8a565b905095945050505050565b600060208201905081810360008301526156c48184614a99565b905092915050565b600060208201905081810360008301526156e68184614b0e565b905092915050565b60006020820190506157036000830184614b7b565b92915050565b600060208201905081810360008301526157238184614bc3565b905092915050565b6000602082019050818103600083015261574481614c2d565b9050919050565b6000602082019050818103600083015261576481614c6d565b9050919050565b6000602082019050818103600083015261578481614cad565b9050919050565b600060208201905081810360008301526157a481614d13565b9050919050565b600060208201905081810360008301526157c481614d79565b9050919050565b600060208201905081810360008301526157e481614db9565b9050919050565b6000602082019050818103600083015261580481614e1f565b9050919050565b6000602082019050818103600083015261582481614e5f565b9050919050565b6000602082019050818103600083015261584481614e9f565b9050919050565b6000602082019050818103600083015261586481614f05565b9050919050565b6000602082019050818103600083015261588481614f6b565b9050919050565b600060208201905081810360008301526158a481614fd1565b9050919050565b600060208201905081810360008301526158c481615037565b9050919050565b600060208201905081810360008301526158e48161509d565b9050919050565b60006020820190508181036000830152615904816150dd565b9050919050565b6000602082019050818103600083015261592481615143565b9050919050565b6000602082019050818103600083015261594481615183565b9050919050565b60006020820190508181036000830152615964816151c3565b9050919050565b6000602082019050818103600083015261598481615229565b9050919050565b600060208201905081810360008301526159a48161528f565b9050919050565b600060208201905081810360008301526159c4816152cf565b9050919050565b600060208201905081810360008301526159e481615335565b9050919050565b60006020820190508181036000830152615a048161539b565b9050919050565b60006020820190508181036000830152615a24816153db565b9050919050565b60006020820190508181036000830152615a4481615441565b9050919050565b60006020820190508181036000830152615a658184615572565b905092915050565b6000602082019050615a82600083018461561d565b92915050565b600060c082019050615a9d600083018961561d565b615aaa6020830188614a2c565b615ab7604083018761561d565b615ac4606083018661561d565b615ad16080830185614b7b565b615ade60a0830184614a2c565b979650505050505050565b6000604051905081810181811067ffffffffffffffff82111715615b1057615b0f615e81565b5b8060405250919050565b600067ffffffffffffffff821115615b3557615b34615e81565b5b601f19601f8301169050602081019050919050565b600067ffffffffffffffff821115615b6557615b64615e81565b5b601f19601f8301169050602081019050919050565b6000819050602082019050919050565b6000819050602082019050919050565b6000819050602082019050919050565b600081519050919050565b600081519050919050565b600081519050919050565b600081519050919050565b600081519050919050565b6000602082019050919050565b6000602082019050919050565b6000602082019050919050565b600082825260208201905092915050565b600082825260208201905092915050565b600082825260208201905092915050565b600082825260208201905092915050565b600082825260208201905092915050565b600081905092915050565b6000615c7382615d5c565b9150615c7e83615d5c565b9250827fffffffffffffffffffffffffffffffffffffffffffffffffffffffffffffffff03821115615cb357615cb2615e23565b5b828201905092915050565b6000615cc982615d5c565b9150615cd483615d5c565b925082821015615ce757615ce6615e23565b5b828203905092915050565b6000615cfd82615d3c565b9050919050565b60008115159050919050565b60007fffffffff0000000000000000000000000000000000000000000000000000000082169050919050565b600073ffffffffffffffffffffffffffffffffffffffff82169050919050565b6000819050919050565b82818337600083830152505050565b60005b83811015615d93578082015181840152602081019050615d78565b83811115615da2576000848401525b50505050565b60006002820490506001821680615dc057607f821691505b60208210811415615dd457615dd3615e52565b5b50919050565b6000615de582615d5c565b91507fffffffffffffffffffffffffffffffffffffffffffffffffffffffffffffffff821415615e1857615e17615e23565b5b600182019050919050565b7f4e487b7100000000000000000000000000000000000000000000000000000000600052601160045260246000fd5b7f4e487b7100000000000000000000000000000000000000000000000000000000600052602260045260246000fd5b7f4e487b7100000000000000000000000000000000000000000000000000000000600052604160045260246000fd5b6000601f19601f8301169050919050565b615eca81615cf2565b8114615ed557600080fd5b50565b615ee181615d04565b8114615eec57600080fd5b50565b615ef881615d10565b8114615f0357600080fd5b50565b615f0f81615d5c565b8114615f1a57600080fd5b5056fea2646970667358221220ad52dd98cfda732a6ea3ae00523aece4bfca7815b66ff92da9888c507067c9cd64736f6c63430008000033",
  "linkReferences": {},
  "deployedLinkReferences": {}
}