{
  "_format": "hh-sol-artifact-1",
  "contractName": "House",
  "sourceName": "contracts/House.sol",
  "abi": [
    {
      "inputs": [],
      "stateMutability": "nonpayable",
      "type": "constructor"
    },
    {
      "anonymous": false,
      "inputs": [
        {
          "indexed": true,
          "internalType": "address",
          "name": "owner",
          "type": "address"
        },
        {
          "indexed": true,
          "internalType": "address",
          "name": "approved",
          "type": "address"
        },
        {
          "indexed": true,
          "internalType": "uint256",
          "name": "tokenId",
          "type": "uint256"
        }
      ],
      "name": "Approval",
      "type": "event"
    },
    {
      "anonymous": false,
      "inputs": [
        {
          "indexed": true,
          "internalType": "address",
          "name": "owner",
          "type": "address"
        },
        {
          "indexed": true,
          "internalType": "address",
          "name": "operator",
          "type": "address"
        },
        {
          "indexed": false,
          "internalType": "bool",
          "name": "approved",
          "type": "bool"
        }
      ],
      "name": "ApprovalForAll",
      "type": "event"
    },
    {
      "anonymous": false,
      "inputs": [
        {
          "indexed": true,
          "internalType": "address",
          "name": "previousOwner",
          "type": "address"
        },
        {
          "indexed": true,
          "internalType": "address",
          "name": "newOwner",
          "type": "address"
        }
      ],
      "name": "OwnershipTransferred",
      "type": "event"
    },
    {
      "anonymous": false,
      "inputs": [
        {
          "indexed": true,
          "internalType": "address",
          "name": "from",
          "type": "address"
        },
        {
          "indexed": true,
          "internalType": "address",
          "name": "to",
          "type": "address"
        },
        {
          "indexed": true,
          "internalType": "uint256",
          "name": "tokenId",
          "type": "uint256"
        }
      ],
      "name": "Transfer",
      "type": "event"
    },
    {
      "inputs": [],
      "name": "_getMyTokens",
      "outputs": [
        {
          "internalType": "uint256[]",
          "name": "",
          "type": "uint256[]"
        }
      ],
      "stateMutability": "view",
      "type": "function"
    },
    {
      "inputs": [
        {
          "internalType": "uint256",
          "name": "tokenId",
          "type": "uint256"
        }
      ],
      "name": "_getOnSaleStatus",
      "outputs": [
        {
          "internalType": "bool",
          "name": "",
          "type": "bool"
        }
      ],
      "stateMutability": "view",
      "type": "function"
    },
    {
      "inputs": [
        {
          "internalType": "uint256",
          "name": "tokenId",
          "type": "uint256"
        }
      ],
      "name": "_getOnSaleToken",
      "outputs": [
        {
          "components": [
            {
              "internalType": "uint256",
              "name": "tokenId",
              "type": "uint256"
            },
            {
              "internalType": "address",
              "name": "postedBy",
              "type": "address"
            },
            {
              "internalType": "uint256",
              "name": "minimumPrice",
              "type": "uint256"
            },
            {
              "internalType": "uint256",
              "name": "offersCount",
              "type": "uint256"
            },
            {
              "internalType": "bool",
              "name": "isAvailable",
              "type": "bool"
            },
            {
              "internalType": "address",
              "name": "soldTo",
              "type": "address"
            },
            {
              "components": [
                {
                  "internalType": "address",
                  "name": "bidder",
                  "type": "address"
                },
                {
                  "internalType": "uint256",
                  "name": "offerPrice",
                  "type": "uint256"
                }
              ],
              "internalType": "struct House.Offer[]",
              "name": "offers",
              "type": "tuple[]"
            }
          ],
          "internalType": "struct House.SaleToken",
          "name": "",
          "type": "tuple"
        }
      ],
      "stateMutability": "view",
      "type": "function"
    },
    {
      "inputs": [],
      "name": "_getSaleTokens",
      "outputs": [
        {
          "components": [
            {
              "internalType": "uint256",
              "name": "tokenId",
              "type": "uint256"
            },
            {
              "internalType": "address",
              "name": "postedBy",
              "type": "address"
            },
            {
              "internalType": "uint256",
              "name": "minimumPrice",
              "type": "uint256"
            },
            {
              "internalType": "uint256",
              "name": "offersCount",
              "type": "uint256"
            },
            {
              "internalType": "bool",
              "name": "isAvailable",
              "type": "bool"
            },
            {
              "internalType": "address",
              "name": "soldTo",
              "type": "address"
            },
            {
              "components": [
                {
                  "internalType": "address",
                  "name": "bidder",
                  "type": "address"
                },
                {
                  "internalType": "uint256",
                  "name": "offerPrice",
                  "type": "uint256"
                }
              ],
              "internalType": "struct House.Offer[]",
              "name": "offers",
              "type": "tuple[]"
            }
          ],
          "internalType": "struct House.SaleToken[]",
          "name": "",
          "type": "tuple[]"
        }
      ],
      "stateMutability": "view",
      "type": "function"
    },
    {
      "inputs": [
        {
          "internalType": "address",
          "name": "",
          "type": "address"
        },
        {
          "internalType": "uint256",
          "name": "",
          "type": "uint256"
        }
      ],
      "name": "_myTokens",
      "outputs": [
        {
          "internalType": "uint256",
          "name": "",
          "type": "uint256"
        }
      ],
      "stateMutability": "view",
      "type": "function"
    },
    {
      "inputs": [
        {
          "internalType": "address",
          "name": "to",
          "type": "address"
        },
        {
          "internalType": "uint256",
          "name": "tokenId",
          "type": "uint256"
        }
      ],
      "name": "approve",
      "outputs": [],
      "stateMutability": "nonpayable",
      "type": "function"
    },
    {
      "inputs": [
        {
          "internalType": "address",
          "name": "owner",
          "type": "address"
        }
      ],
      "name": "balanceOf",
      "outputs": [
        {
          "internalType": "uint256",
          "name": "",
          "type": "uint256"
        }
      ],
      "stateMutability": "view",
      "type": "function"
    },
    {
      "inputs": [
        {
          "internalType": "uint256",
          "name": "tokenId",
          "type": "uint256"
        }
      ],
      "name": "burn",
      "outputs": [],
      "stateMutability": "nonpayable",
      "type": "function"
    },
    {
      "inputs": [
        {
          "internalType": "uint256",
          "name": "tokenId",
          "type": "uint256"
        }
      ],
      "name": "getApproved",
      "outputs": [
        {
          "internalType": "address",
          "name": "",
          "type": "address"
        }
      ],
      "stateMutability": "view",
      "type": "function"
    },
    {
      "inputs": [
        {
          "internalType": "address",
          "name": "owner",
          "type": "address"
        },
        {
          "internalType": "address",
          "name": "operator",
          "type": "address"
        }
      ],
      "name": "isApprovedForAll",
      "outputs": [
        {
          "internalType": "bool",
          "name": "",
          "type": "bool"
        }
      ],
      "stateMutability": "view",
      "type": "function"
    },
    {
      "inputs": [
        {
          "internalType": "address",
          "name": "_to",
          "type": "address"
        },
        {
          "internalType": "string",
          "name": "_hash",
          "type": "string"
        }
      ],
      "name": "mint",
      "outputs": [
        {
          "internalType": "uint256",
          "name": "",
          "type": "uint256"
        }
      ],
      "stateMutability": "nonpayable",
      "type": "function"
    },
    {
      "inputs": [],
      "name": "name",
      "outputs": [
        {
          "internalType": "string",
          "name": "",
          "type": "string"
        }
      ],
      "stateMutability": "view",
      "type": "function"
    },
    {
      "inputs": [
        {
          "internalType": "uint256",
          "name": "tokenId",
          "type": "uint256"
        }
      ],
      "name": "offer",
      "outputs": [],
      "stateMutability": "payable",
      "type": "function"
    },
    {
      "inputs": [],
      "name": "owner",
      "outputs": [
        {
          "internalType": "address",
          "name": "",
          "type": "address"
        }
      ],
      "stateMutability": "view",
      "type": "function"
    },
    {
      "inputs": [
        {
          "internalType": "uint256",
          "name": "tokenId",
          "type": "uint256"
        }
      ],
      "name": "ownerOf",
      "outputs": [
        {
          "internalType": "address",
          "name": "",
          "type": "address"
        }
      ],
      "stateMutability": "view",
      "type": "function"
    },
    {
      "inputs": [
        {
          "internalType": "uint256",
          "name": "tokenId",
          "type": "uint256"
        },
        {
          "internalType": "uint256",
          "name": "minimumPrice",
          "type": "uint256"
        }
      ],
      "name": "putOnSale",
      "outputs": [],
      "stateMutability": "nonpayable",
      "type": "function"
    },
    {
      "inputs": [],
      "name": "renounceOwnership",
      "outputs": [],
      "stateMutability": "nonpayable",
      "type": "function"
    },
    {
      "inputs": [
        {
          "internalType": "uint256",
          "name": "tokenId",
          "type": "uint256"
        }
      ],
      "name": "revokeSaleToken",
      "outputs": [],
      "stateMutability": "payable",
      "type": "function"
    },
    {
      "inputs": [
        {
          "internalType": "address",
          "name": "from",
          "type": "address"
        },
        {
          "internalType": "address",
          "name": "to",
          "type": "address"
        },
        {
          "internalType": "uint256",
          "name": "tokenId",
          "type": "uint256"
        }
      ],
      "name": "safeTransferFrom",
      "outputs": [],
      "stateMutability": "nonpayable",
      "type": "function"
    },
    {
      "inputs": [
        {
          "internalType": "address",
          "name": "from",
          "type": "address"
        },
        {
          "internalType": "address",
          "name": "to",
          "type": "address"
        },
        {
          "internalType": "uint256",
          "name": "tokenId",
          "type": "uint256"
        },
        {
          "internalType": "bytes",
          "name": "_data",
          "type": "bytes"
        }
      ],
      "name": "safeTransferFrom",
      "outputs": [],
      "stateMutability": "nonpayable",
      "type": "function"
    },
    {
      "inputs": [
        {
          "internalType": "uint256",
          "name": "",
          "type": "uint256"
        }
      ],
      "name": "saleTokens",
      "outputs": [
        {
          "internalType": "uint256",
          "name": "tokenId",
          "type": "uint256"
        },
        {
          "internalType": "address",
          "name": "postedBy",
          "type": "address"
        },
        {
          "internalType": "uint256",
          "name": "minimumPrice",
          "type": "uint256"
        },
        {
          "internalType": "uint256",
          "name": "offersCount",
          "type": "uint256"
        },
        {
          "internalType": "bool",
          "name": "isAvailable",
          "type": "bool"
        },
        {
          "internalType": "address",
          "name": "soldTo",
          "type": "address"
        }
      ],
      "stateMutability": "view",
      "type": "function"
    },
    {
      "inputs": [
        {
          "internalType": "address",
          "name": "operator",
          "type": "address"
        },
        {
          "internalType": "bool",
          "name": "approved",
          "type": "bool"
        }
      ],
      "name": "setApprovalForAll",
      "outputs": [],
      "stateMutability": "nonpayable",
      "type": "function"
    },
    {
      "inputs": [
        {
          "internalType": "string",
          "name": "baseURI_",
          "type": "string"
        }
      ],
      "name": "setBaseURI",
      "outputs": [],
      "stateMutability": "nonpayable",
      "type": "function"
    },
    {
      "inputs": [
        {
          "internalType": "bytes4",
          "name": "interfaceId",
          "type": "bytes4"
        }
      ],
      "name": "supportsInterface",
      "outputs": [
        {
          "internalType": "bool",
          "name": "",
          "type": "bool"
        }
      ],
      "stateMutability": "view",
      "type": "function"
    },
    {
      "inputs": [],
      "name": "symbol",
      "outputs": [
        {
          "internalType": "string",
          "name": "",
          "type": "string"
        }
      ],
      "stateMutability": "view",
      "type": "function"
    },
    {
      "inputs": [
        {
          "internalType": "uint256",
          "name": "tokenId",
          "type": "uint256"
        }
      ],
      "name": "tokenURI",
      "outputs": [
        {
          "internalType": "string",
          "name": "",
          "type": "string"
        }
      ],
      "stateMutability": "view",
      "type": "function"
    },
    {
      "inputs": [],
      "name": "totalSaleTokens",
      "outputs": [
        {
          "internalType": "uint256",
          "name": "",
          "type": "uint256"
        }
      ],
      "stateMutability": "view",
      "type": "function"
    },
    {
      "inputs": [],
      "name": "totalTokens",
      "outputs": [
        {
          "internalType": "uint256",
          "name": "",
          "type": "uint256"
        }
      ],
      "stateMutability": "view",
      "type": "function"
    },
    {
      "inputs": [
        {
          "internalType": "uint256",
          "name": "tokenId",
          "type": "uint256"
        },
        {
          "internalType": "uint256",
          "name": "offerIndex",
          "type": "uint256"
        }
      ],
      "name": "transfer",
      "outputs": [],
      "stateMutability": "payable",
      "type": "function"
    },
    {
      "inputs": [
        {
          "internalType": "address",
          "name": "from",
          "type": "address"
        },
        {
          "internalType": "address",
          "name": "to",
          "type": "address"
        },
        {
          "internalType": "uint256",
          "name": "tokenId",
          "type": "uint256"
        }
      ],
      "name": "transferFrom",
      "outputs": [],
      "stateMutability": "nonpayable",
      "type": "function"
    },
    {
      "inputs": [
        {
          "internalType": "address",
          "name": "newOwner",
          "type": "address"
        }
      ],
      "name": "transferOwnership",
      "outputs": [],
      "stateMutability": "nonpayable",
      "type": "function"
    }
  ],
  "bytecode": "0x60806040526040518060400160405280600781526020017f697066733a2f2f000000000000000000000000000000000000000000000000008152506008908051906020019062000051929190620001f4565b503480156200005f57600080fd5b506040518060400160405280600c81526020017f5072656d69756d486f75736500000000000000000000000000000000000000008152506040518060400160405280600281526020017f50480000000000000000000000000000000000000000000000000000000000008152508160009080519060200190620000e4929190620001f4565b508060019080519060200190620000fd929190620001f4565b50505062000120620001146200012660201b60201c565b6200012e60201b60201c565b62000309565b600033905090565b6000600660009054906101000a900473ffffffffffffffffffffffffffffffffffffffff16905081600660006101000a81548173ffffffffffffffffffffffffffffffffffffffff021916908373ffffffffffffffffffffffffffffffffffffffff1602179055508173ffffffffffffffffffffffffffffffffffffffff168173ffffffffffffffffffffffffffffffffffffffff167f8be0079c531659141344cd1fd0a4f28419497f9722a3daafe3b4186f6b6457e060405160405180910390a35050565b8280546200020290620002a4565b90600052602060002090601f01602090048101928262000226576000855562000272565b82601f106200024157805160ff191683800117855562000272565b8280016001018555821562000272579182015b828111156200027157825182559160200191906001019062000254565b5b50905062000281919062000285565b5090565b5b80821115620002a057600081600090555060010162000286565b5090565b60006002820490506001821680620002bd57607f821691505b60208210811415620002d457620002d3620002da565b5b50919050565b7f4e487b7100000000000000000000000000000000000000000000000000000000600052602260045260246000fd5b6159e480620003196000396000f3fe6080604052600436106101d85760003560e01c8063715018a611610102578063a4c1431611610095578063d0def52111610064578063d0def521146106bc578063d18d8af5146106f9578063e985e9c514610724578063f2fde38b14610761576101d8565b8063a4c14316146105fd578063ae83f2d71461063a578063b88d4fde14610656578063c87b56dd1461067f576101d8565b80638da5cb5b116100d15780638da5cb5b1461053c57806395d89b4114610567578063a22cb46514610592578063a4b2a27c146105bb576101d8565b8063715018a6146104b3578063761610fc146104ca5780637e1c0c09146104e657806382431b0a14610511576101d8565b806342842e0e1161017a57806355f804b31161014957806355f804b3146103d35780636352211e146103fc5780636a23e8a71461043957806370a0823114610476576101d8565b806342842e0e1461031957806342966c68146103425780634b1662991461036b5780634f42697d146103a8576101d8565b8063095ea7b3116101b6578063095ea7b3146102825780630cf79e0a146102ab57806323b872dd146102c757806336f7992b146102f0576101d8565b806301ffc9a7146101dd57806306fdde031461021a578063081812fc14610245575b600080fd5b3480156101e957600080fd5b5061020460048036038101906101ff919061433e565b61078a565b60405161021191906150e5565b60405180910390f35b34801561022657600080fd5b5061022f61086c565b60405161023c9190615100565b60405180910390f35b34801561025157600080fd5b5061026c600480360381019061026791906143d1565b6108fe565b604051610279919061503a565b60405180910390f35b34801561028e57600080fd5b506102a960048036038101906102a49190614302565b610983565b005b6102c560048036038101906102c091906143fa565b610a9b565b005b3480156102d357600080fd5b506102ee60048036038101906102e991906141a8565b61110d565b005b3480156102fc57600080fd5b50610317600480360381019061031291906143fa565b61116d565b005b34801561032557600080fd5b50610340600480360381019061033b91906141a8565b6114e5565b005b34801561034e57600080fd5b50610369600480360381019061036491906143d1565b611505565b005b34801561037757600080fd5b50610392600480360381019061038d91906143d1565b6116fa565b60405161039f91906150e5565b60405180910390f35b3480156103b457600080fd5b506103bd61176c565b6040516103ca91906150a1565b60405180910390f35b3480156103df57600080fd5b506103fa60048036038101906103f59190614390565b61196f565b005b34801561040857600080fd5b50610423600480360381019061041e91906143d1565b611a05565b604051610430919061503a565b60405180910390f35b34801561044557600080fd5b50610460600480360381019061045b91906143d1565b611ab7565b60405161046d9190615422565b60405180910390f35b34801561048257600080fd5b5061049d60048036038101906104989190614143565b611cdc565b6040516104aa9190615444565b60405180910390f35b3480156104bf57600080fd5b506104c8611d94565b005b6104e460048036038101906104df91906143d1565b611e1c565b005b3480156104f257600080fd5b506104fb612229565b6040516105089190615444565b60405180910390f35b34801561051d57600080fd5b5061052661222f565b6040516105339190615444565b60405180910390f35b34801561054857600080fd5b50610551612235565b60405161055e919061503a565b60405180910390f35b34801561057357600080fd5b5061057c61225f565b6040516105899190615100565b60405180910390f35b34801561059e57600080fd5b506105b960048036038101906105b49190614272565b6122f1565b005b3480156105c757600080fd5b506105e260048036038101906105dd91906143d1565b612472565b6040516105f49695949392919061545f565b60405180910390f35b34801561060957600080fd5b50610624600480360381019061061f9190614302565b61250b565b6040516106319190615444565b60405180910390f35b610654600480360381019061064f91906143d1565b61253c565b005b34801561066257600080fd5b5061067d600480360381019061067891906141f7565b612a9c565b005b34801561068b57600080fd5b506106a660048036038101906106a191906143d1565b612afe565b6040516106b39190615100565b60405180910390f35b3480156106c857600080fd5b506106e360048036038101906106de91906142ae565b612bf1565b6040516106f09190615444565b60405180910390f35b34801561070557600080fd5b5061070e612e21565b60405161071b91906150c3565b60405180910390f35b34801561073057600080fd5b5061074b6004803603810190610746919061416c565b612eb6565b60405161075891906150e5565b60405180910390f35b34801561076d57600080fd5b5061078860048036038101906107839190614143565b612f4a565b005b60007f80ac58cd000000000000000000000000000000000000000000000000000000007bffffffffffffffffffffffffffffffffffffffffffffffffffffffff1916827bffffffffffffffffffffffffffffffffffffffffffffffffffffffff1916148061085557507f5b5e139f000000000000000000000000000000000000000000000000000000007bffffffffffffffffffffffffffffffffffffffffffffffffffffffff1916827bffffffffffffffffffffffffffffffffffffffffffffffffffffffff1916145b80610865575061086482613042565b5b9050919050565b60606000805461087b9061580a565b80601f01602080910402602001604051908101604052809291908181526020018280546108a79061580a565b80156108f45780601f106108c9576101008083540402835291602001916108f4565b820191906000526020600020905b8154815290600101906020018083116108d757829003601f168201915b5050505050905090565b6000610909826130ac565b610948576040517f08c379a000000000000000000000000000000000000000000000000000000000815260040161093f906152e2565b60405180910390fd5b6004600083815260200190815260200160002060009054906101000a900473ffffffffffffffffffffffffffffffffffffffff169050919050565b600061098e82611a05565b90508073ffffffffffffffffffffffffffffffffffffffff168373ffffffffffffffffffffffffffffffffffffffff1614156109ff576040517f08c379a00000000000000000000000000000000000000000000000000000000081526004016109f6906153a2565b60405180910390fd5b8073ffffffffffffffffffffffffffffffffffffffff16610a1e613118565b73ffffffffffffffffffffffffffffffffffffffff161480610a4d5750610a4c81610a47613118565b612eb6565b5b610a8c576040517f08c379a0000000000000000000000000000000000000000000000000000000008152600401610a8390615242565b60405180910390fd5b610a968383613120565b505050565b81610aa5816130ac565b610ae4576040517f08c379a0000000000000000000000000000000000000000000000000000000008152600401610adb90615202565b60405180910390fd5b60001515600c600083815260200190815260200160002060009054906101000a900460ff1615151415610b4c576040517f08c379a0000000000000000000000000000000000000000000000000000000008152600401610b43906153e2565b60405180910390fd5b610b5d610b57613118565b846131d9565b610b9c576040517f08c379a0000000000000000000000000000000000000000000000000000000008152600401610b9390615382565b60405180910390fd5b6000600d6000858152602001908152602001600020549050600060118281548110610bf0577f4e487b7100000000000000000000000000000000000000000000000000000000600052603260045260246000fd5b90600052602060002090600602019050600081600301541415610c48576040517f08c379a0000000000000000000000000000000000000000000000000000000008152600401610c3f90615402565b60405180910390fd5b600015158160040160009054906101000a900460ff1615151415610ca1576040517f08c379a0000000000000000000000000000000000000000000000000000000008152600401610c9890615362565b60405180910390fd5b60008160050190506000600b600088815260200190815260200160002060009054906101000a900473ffffffffffffffffffffffffffffffffffffffff16905060005b828054905081101561106f576000838281548110610d2b577f4e487b7100000000000000000000000000000000000000000000000000000000600052603260045260246000fd5b90600052602060002090600202016040518060400160405290816000820160009054906101000a900473ffffffffffffffffffffffffffffffffffffffff1673ffffffffffffffffffffffffffffffffffffffff1673ffffffffffffffffffffffffffffffffffffffff1681526020016001820154815250509050806020015160096000836000015173ffffffffffffffffffffffffffffffffffffffff1673ffffffffffffffffffffffffffffffffffffffff1681526020019081526020016000206000828254610dfd9190615720565b9250508190555087821415610fa7578273ffffffffffffffffffffffffffffffffffffffff166108fc606460058460200151610e3991906156c6565b610e439190615695565b9081150290604051600060405180830381858888f19350505050158015610e6e573d6000803e3d6000fd5b50610e7889611a05565b73ffffffffffffffffffffffffffffffffffffffff166108fc600a60098460200151610ea491906156c6565b610eae9190615695565b9081150290604051600060405180830381858888f19350505050158015610ed9573d6000803e3d6000fd5b50600f6000826000015173ffffffffffffffffffffffffffffffffffffffff1673ffffffffffffffffffffffffffffffffffffffff168152602001908152602001600020899080600181540180825580915050600190039060005260206000200160009091909190915055610f5b610f508a611a05565b82600001518b6114e5565b80600001518560040160016101000a81548173ffffffffffffffffffffffffffffffffffffffff021916908373ffffffffffffffffffffffffffffffffffffffff160217905550610ff7565b806000015173ffffffffffffffffffffffffffffffffffffffff166108fc82602001519081150290604051600060405180830381858888f19350505050158015610ff5573d6000803e3d6000fd5b505b600e60008a81526020019081526020016000206000826000015173ffffffffffffffffffffffffffffffffffffffff1673ffffffffffffffffffffffffffffffffffffffff16815260200190815260200160002060006101000a81549060ff02191690555080806110679061583c565b915050610ce4565b5061107a33886132b7565b82600501600061108a9190613d89565b60008360040160006101000a81548160ff0219169083151502179055506000600c600089815260200190815260200160002060006101000a81548160ff021916908315150217905550600d6000888152602001908152602001600020600090556001601360008282546110fd9190615720565b9250508190555050505050505050565b61111e611118613118565b826131d9565b61115d576040517f08c379a0000000000000000000000000000000000000000000000000000000008152600401611154906153c2565b60405180910390fd5b6111688383836134e5565b505050565b611176826130ac565b6111b5576040517f08c379a00000000000000000000000000000000000000000000000000000000081526004016111ac90615202565b60405180910390fd5b6111bd613118565b73ffffffffffffffffffffffffffffffffffffffff166111dc83611a05565b73ffffffffffffffffffffffffffffffffffffffff1614611232576040517f08c379a000000000000000000000000000000000000000000000000000000000815260040161122990615382565b60405180910390fd5b60011515600c600084815260200190815260200160002060009054906101000a900460ff161515141561129a576040517f08c379a000000000000000000000000000000000000000000000000000000000815260040161129190615322565b60405180910390fd5b6001600c600084815260200190815260200160002060006101000a81548160ff021916908315150217905550601180549050600d60008481526020019081526020016000208190555060008281600001819055506112f6613118565b8160010160006101000a81548173ffffffffffffffffffffffffffffffffffffffff021916908373ffffffffffffffffffffffffffffffffffffffff1602179055508181600201819055506000816003018190555060018160040160006101000a81548160ff0219169083151502179055506011819080600181540180825580915050600190039060005260206000209060060201600090919091909150600082015481600001556001820160009054906101000a900473ffffffffffffffffffffffffffffffffffffffff168160010160006101000a81548173ffffffffffffffffffffffffffffffffffffffff021916908373ffffffffffffffffffffffffffffffffffffffff16021790555060028201548160020155600382015481600301556004820160009054906101000a900460ff168160040160006101000a81548160ff0219169083151502179055506004820160019054906101000a900473ffffffffffffffffffffffffffffffffffffffff168160040160016101000a81548173ffffffffffffffffffffffffffffffffffffffff021916908373ffffffffffffffffffffffffffffffffffffffff16021790555060058201816005019080546114c3929190613dad565b5050506001601360008282546114d9919061563f565b92505081905550505050565b61150083838360405180602001604052806000815250612a9c565b505050565b61150e816130ac565b61154d576040517f08c379a000000000000000000000000000000000000000000000000000000000815260040161154490615202565b60405180910390fd5b61155e611558613118565b826131d9565b61159d576040517f08c379a000000000000000000000000000000000000000000000000000000000815260040161159490615382565b60405180910390fd5b60006010600083815260200190815260200160002080546115bd9061580a565b80601f01602080910402602001604051908101604052809291908181526020018280546115e99061580a565b80156116365780601f1061160b57610100808354040283529160200191611636565b820191906000526020600020905b81548152906001019060200180831161161957829003601f168201915b505050505090506000600a8260405161164f9190615023565b908152602001604051809103902060006101000a81548160ff0219169083151502179055506010600083815260200190815260200160002060006116939190613e76565b61169d33836132b7565b600b600083815260200190815260200160002060006101000a81549073ffffffffffffffffffffffffffffffffffffffff02191690556001601260008282546116e69190615720565b925050819055506116f682613741565b5050565b6000611705826130ac565b611744576040517f08c379a000000000000000000000000000000000000000000000000000000000815260040161173b90615202565b60405180910390fd5b600c600083815260200190815260200160002060009054906101000a900460ff169050919050565b60606011805480602002602001604051908101604052809291908181526020016000905b8282101561196657838290600052602060002090600602016040518060e0016040529081600082015481526020016001820160009054906101000a900473ffffffffffffffffffffffffffffffffffffffff1673ffffffffffffffffffffffffffffffffffffffff1673ffffffffffffffffffffffffffffffffffffffff16815260200160028201548152602001600382015481526020016004820160009054906101000a900460ff161515151581526020016004820160019054906101000a900473ffffffffffffffffffffffffffffffffffffffff1673ffffffffffffffffffffffffffffffffffffffff1673ffffffffffffffffffffffffffffffffffffffff16815260200160058201805480602002602001604051908101604052809291908181526020016000905b8282101561194f57838290600052602060002090600202016040518060400160405290816000820160009054906101000a900473ffffffffffffffffffffffffffffffffffffffff1673ffffffffffffffffffffffffffffffffffffffff1673ffffffffffffffffffffffffffffffffffffffff168152602001600182015481525050815260200190600101906118bd565b505050508152505081526020019060010190611790565b50505050905090565b611977613118565b73ffffffffffffffffffffffffffffffffffffffff16611995612235565b73ffffffffffffffffffffffffffffffffffffffff16146119eb576040517f08c379a00000000000000000000000000000000000000000000000000000000081526004016119e290615302565b60405180910390fd5b8060089080519060200190611a01929190613eb6565b5050565b6000806002600084815260200190815260200160002060009054906101000a900473ffffffffffffffffffffffffffffffffffffffff169050600073ffffffffffffffffffffffffffffffffffffffff168173ffffffffffffffffffffffffffffffffffffffff161415611aae576040517f08c379a0000000000000000000000000000000000000000000000000000000008152600401611aa5906152a2565b60405180910390fd5b80915050919050565b611abf613f3c565b6000600d6000848152602001908152602001600020549050600060118281548110611b13577f4e487b7100000000000000000000000000000000000000000000000000000000600052603260045260246000fd5b90600052602060002090600602016040518060e0016040529081600082015481526020016001820160009054906101000a900473ffffffffffffffffffffffffffffffffffffffff1673ffffffffffffffffffffffffffffffffffffffff1673ffffffffffffffffffffffffffffffffffffffff16815260200160028201548152602001600382015481526020016004820160009054906101000a900460ff161515151581526020016004820160019054906101000a900473ffffffffffffffffffffffffffffffffffffffff1673ffffffffffffffffffffffffffffffffffffffff1673ffffffffffffffffffffffffffffffffffffffff16815260200160058201805480602002602001604051908101604052809291908181526020016000905b82821015611cc857838290600052602060002090600202016040518060400160405290816000820160009054906101000a900473ffffffffffffffffffffffffffffffffffffffff1673ffffffffffffffffffffffffffffffffffffffff1673ffffffffffffffffffffffffffffffffffffffff16815260200160018201548152505081526020019060010190611c36565b505050508152505090508092505050919050565b60008073ffffffffffffffffffffffffffffffffffffffff168273ffffffffffffffffffffffffffffffffffffffff161415611d4d576040517f08c379a0000000000000000000000000000000000000000000000000000000008152600401611d4490615282565b60405180910390fd5b600360008373ffffffffffffffffffffffffffffffffffffffff1673ffffffffffffffffffffffffffffffffffffffff168152602001908152602001600020549050919050565b611d9c613118565b73ffffffffffffffffffffffffffffffffffffffff16611dba612235565b73ffffffffffffffffffffffffffffffffffffffff1614611e10576040517f08c379a0000000000000000000000000000000000000000000000000000000008152600401611e0790615302565b60405180910390fd5b611e1a6000613852565b565b80611e26816130ac565b611e65576040517f08c379a0000000000000000000000000000000000000000000000000000000008152600401611e5c90615202565b60405180910390fd5b60001515600c600083815260200190815260200160002060009054906101000a900460ff1615151415611ecd576040517f08c379a0000000000000000000000000000000000000000000000000000000008152600401611ec4906153e2565b60405180910390fd5b60001515611ee2611edc613118565b846131d9565b151514611f24576040517f08c379a0000000000000000000000000000000000000000000000000000000008152600401611f1b90615262565b60405180910390fd5b60011515600e600084815260200190815260200160002060003373ffffffffffffffffffffffffffffffffffffffff1673ffffffffffffffffffffffffffffffffffffffff16815260200190815260200160002060009054906101000a900460ff1615151415611fc9576040517f08c379a0000000000000000000000000000000000000000000000000000000008152600401611fc090615122565b60405180910390fd5b6001600e600084815260200190815260200160002060003373ffffffffffffffffffffffffffffffffffffffff1673ffffffffffffffffffffffffffffffffffffffff16815260200190815260200160002060006101000a81548160ff0219169083151502179055506000600d6000848152602001908152602001600020549050600060118281548110612086577f4e487b7100000000000000000000000000000000000000000000000000000000600052603260045260246000fd5b9060005260206000209060060201905080600201543410156120a757600080fd5b600015158160040160009054906101000a900460ff1615151415612100576040517f08c379a00000000000000000000000000000000000000000000000000000000081526004016120f790615362565b60405180910390fd5b600060405180604001604052803373ffffffffffffffffffffffffffffffffffffffff1681526020013481525090508160050181908060018154018082558091505060019003906000526020600020906002020160009091909190915060008201518160000160006101000a81548173ffffffffffffffffffffffffffffffffffffffff021916908373ffffffffffffffffffffffffffffffffffffffff16021790555060208201518160010155505060018260030160008282546121c5919061563f565b9250508190555034600960003373ffffffffffffffffffffffffffffffffffffffff1673ffffffffffffffffffffffffffffffffffffffff168152602001908152602001600020600082825461221b919061563f565b925050819055505050505050565b60125481565b60135481565b6000600660009054906101000a900473ffffffffffffffffffffffffffffffffffffffff16905090565b60606001805461226e9061580a565b80601f016020809104026020016040519081016040528092919081815260200182805461229a9061580a565b80156122e75780601f106122bc576101008083540402835291602001916122e7565b820191906000526020600020905b8154815290600101906020018083116122ca57829003601f168201915b5050505050905090565b6122f9613118565b73ffffffffffffffffffffffffffffffffffffffff168273ffffffffffffffffffffffffffffffffffffffff161415612367576040517f08c379a000000000000000000000000000000000000000000000000000000000815260040161235e906151e2565b60405180910390fd5b8060056000612374613118565b73ffffffffffffffffffffffffffffffffffffffff1673ffffffffffffffffffffffffffffffffffffffff16815260200190815260200160002060008473ffffffffffffffffffffffffffffffffffffffff1673ffffffffffffffffffffffffffffffffffffffff16815260200190815260200160002060006101000a81548160ff0219169083151502179055508173ffffffffffffffffffffffffffffffffffffffff16612421613118565b73ffffffffffffffffffffffffffffffffffffffff167f17307eab39ab6107e8899845ad3d59bd9653f200f220920489ca2b5937696c318360405161246691906150e5565b60405180910390a35050565b6011818154811061248257600080fd5b90600052602060002090600602016000915090508060000154908060010160009054906101000a900473ffffffffffffffffffffffffffffffffffffffff16908060020154908060030154908060040160009054906101000a900460ff16908060040160019054906101000a900473ffffffffffffffffffffffffffffffffffffffff16905086565b600f602052816000526040600020818154811061252757600080fd5b90600052602060002001600091509150505481565b80612546816130ac565b612585576040517f08c379a000000000000000000000000000000000000000000000000000000000815260040161257c90615202565b60405180910390fd5b60001515600c600083815260200190815260200160002060009054906101000a900460ff16151514156125ed576040517f08c379a00000000000000000000000000000000000000000000000000000000081526004016125e4906153e2565b60405180910390fd5b6125fe6125f8613118565b836131d9565b61263d576040517f08c379a000000000000000000000000000000000000000000000000000000000815260040161263490615382565b60405180910390fd5b6000600d6000848152602001908152602001600020549050600060118281548110612691577f4e487b7100000000000000000000000000000000000000000000000000000000600052603260045260246000fd5b90600052602060002090600602019050600015158160040160009054906101000a900460ff16151514156126fa576040517f08c379a00000000000000000000000000000000000000000000000000000000081526004016126f190615362565b60405180910390fd5b600081600301541115612a1c57600081600501905060005b8180549050811015612a0957818181548110612757577f4e487b7100000000000000000000000000000000000000000000000000000000600052603260045260246000fd5b906000526020600020906002020160010154600960008484815481106127a6577f4e487b7100000000000000000000000000000000000000000000000000000000600052603260045260246000fd5b906000526020600020906002020160000160009054906101000a900473ffffffffffffffffffffffffffffffffffffffff1673ffffffffffffffffffffffffffffffffffffffff1673ffffffffffffffffffffffffffffffffffffffff16815260200190815260200160002060008282546128219190615720565b92505081905550818181548110612861577f4e487b7100000000000000000000000000000000000000000000000000000000600052603260045260246000fd5b906000526020600020906002020160000160009054906101000a900473ffffffffffffffffffffffffffffffffffffffff1673ffffffffffffffffffffffffffffffffffffffff166108fc8383815481106128e5577f4e487b7100000000000000000000000000000000000000000000000000000000600052603260045260246000fd5b9060005260206000209060020201600101549081150290604051600060405180830381858888f19350505050158015612922573d6000803e3d6000fd5b506000600e60008881526020019081526020016000206000848481548110612973577f4e487b7100000000000000000000000000000000000000000000000000000000600052603260045260246000fd5b906000526020600020906002020160000160009054906101000a900473ffffffffffffffffffffffffffffffffffffffff1673ffffffffffffffffffffffffffffffffffffffff1673ffffffffffffffffffffffffffffffffffffffff16815260200190815260200160002060006101000a81548160ff0219169083151502179055508080612a019061583c565b915050612712565b50816005016000612a1a9190613d89565b505b6000600c600086815260200190815260200160002060006101000a81548160ff021916908315150217905550600d60008381526020019081526020016000206000905560008160040160006101000a81548160ff021916908315150217905550600160136000828254612a8f9190615720565b9250508190555050505050565b612aad612aa7613118565b836131d9565b612aec576040517f08c379a0000000000000000000000000000000000000000000000000000000008152600401612ae3906153c2565b60405180910390fd5b612af884848484613918565b50505050565b6060612b09826130ac565b612b48576040517f08c379a0000000000000000000000000000000000000000000000000000000008152600401612b3f90615202565b60405180910390fd5b6000601060008481526020019081526020016000208054612b689061580a565b80601f0160208091040260200160405190810160405280929190818152602001828054612b949061580a565b8015612be15780601f10612bb657610100808354040283529160200191612be1565b820191906000526020600020905b815481529060010190602001808311612bc457829003601f168201915b5050505050905080915050919050565b6000612bfb613118565b73ffffffffffffffffffffffffffffffffffffffff16612c19612235565b73ffffffffffffffffffffffffffffffffffffffff1614612c6f576040517f08c379a0000000000000000000000000000000000000000000000000000000008152600401612c6690615302565b60405180910390fd5b60011515600a83604051612c839190615023565b908152602001604051809103902060009054906101000a900460ff1615151415612ce2576040517f08c379a0000000000000000000000000000000000000000000000000000000008152600401612cd990615142565b60405180910390fd5b6001600a83604051612cf49190615023565b908152602001604051809103902060006101000a81548160ff021916908315150217905550612d236007613974565b6000612d2f600761398a565b9050612d3b8482613998565b612d458184613b66565b600f60008573ffffffffffffffffffffffffffffffffffffffff1673ffffffffffffffffffffffffffffffffffffffff16815260200190815260200160002081908060018154018082558091505060019003906000526020600020016000909190919091505583600b600083815260200190815260200160002060006101000a81548173ffffffffffffffffffffffffffffffffffffffff021916908373ffffffffffffffffffffffffffffffffffffffff160217905550600160126000828254612e10919061563f565b925050819055508091505092915050565b6060600f60003373ffffffffffffffffffffffffffffffffffffffff1673ffffffffffffffffffffffffffffffffffffffff168152602001908152602001600020805480602002602001604051908101604052809291908181526020018280548015612eac57602002820191906000526020600020905b815481526020019060010190808311612e98575b5050505050905090565b6000600560008473ffffffffffffffffffffffffffffffffffffffff1673ffffffffffffffffffffffffffffffffffffffff16815260200190815260200160002060008373ffffffffffffffffffffffffffffffffffffffff1673ffffffffffffffffffffffffffffffffffffffff16815260200190815260200160002060009054906101000a900460ff16905092915050565b612f52613118565b73ffffffffffffffffffffffffffffffffffffffff16612f70612235565b73ffffffffffffffffffffffffffffffffffffffff1614612fc6576040517f08c379a0000000000000000000000000000000000000000000000000000000008152600401612fbd90615302565b60405180910390fd5b600073ffffffffffffffffffffffffffffffffffffffff168173ffffffffffffffffffffffffffffffffffffffff161415613036576040517f08c379a000000000000000000000000000000000000000000000000000000000815260040161302d90615182565b60405180910390fd5b61303f81613852565b50565b60007f01ffc9a7000000000000000000000000000000000000000000000000000000007bffffffffffffffffffffffffffffffffffffffffffffffffffffffff1916827bffffffffffffffffffffffffffffffffffffffffffffffffffffffff1916149050919050565b60008073ffffffffffffffffffffffffffffffffffffffff166002600084815260200190815260200160002060009054906101000a900473ffffffffffffffffffffffffffffffffffffffff1673ffffffffffffffffffffffffffffffffffffffff1614159050919050565b600033905090565b816004600083815260200190815260200160002060006101000a81548173ffffffffffffffffffffffffffffffffffffffff021916908373ffffffffffffffffffffffffffffffffffffffff160217905550808273ffffffffffffffffffffffffffffffffffffffff1661319383611a05565b73ffffffffffffffffffffffffffffffffffffffff167f8c5be1e5ebec7d5bd14f71427d1e84f3dd0314c0f7b2291e5b200ac8c7c3b92560405160405180910390a45050565b60006131e4826130ac565b613223576040517f08c379a000000000000000000000000000000000000000000000000000000000815260040161321a90615222565b60405180910390fd5b600061322e83611a05565b90508073ffffffffffffffffffffffffffffffffffffffff168473ffffffffffffffffffffffffffffffffffffffff16148061329d57508373ffffffffffffffffffffffffffffffffffffffff16613285846108fe565b73ffffffffffffffffffffffffffffffffffffffff16145b806132ae57506132ad8185612eb6565b5b91505092915050565b6000600f60008473ffffffffffffffffffffffffffffffffffffffff1673ffffffffffffffffffffffffffffffffffffffff168152602001908152602001600020905060006001905060005b81156133715783838281548110613343577f4e487b7100000000000000000000000000000000000000000000000000000000600052603260045260246000fd5b90600052602060002001541461336757600181613360919061563f565b905061336c565b600091505b613303565b60008190505b600184805490506133889190615720565b811015613439578360018261339d919061563f565b815481106133d4577f4e487b7100000000000000000000000000000000000000000000000000000000600052603260045260246000fd5b9060005260206000200154848281548110613418577f4e487b7100000000000000000000000000000000000000000000000000000000600052603260045260246000fd5b906000526020600020018190555080806134319061583c565b915050613377565b50826001848054905061344c9190615720565b81548110613483577f4e487b7100000000000000000000000000000000000000000000000000000000600052603260045260246000fd5b9060005260206000200160009055828054806134c8577f4e487b7100000000000000000000000000000000000000000000000000000000600052603160045260246000fd5b600190038181906000526020600020016000905590555050505050565b8273ffffffffffffffffffffffffffffffffffffffff1661350582611a05565b73ffffffffffffffffffffffffffffffffffffffff161461355b576040517f08c379a000000000000000000000000000000000000000000000000000000000815260040161355290615342565b60405180910390fd5b600073ffffffffffffffffffffffffffffffffffffffff168273ffffffffffffffffffffffffffffffffffffffff1614156135cb576040517f08c379a00000000000000000000000000000000000000000000000000000000081526004016135c2906151c2565b60405180910390fd5b6135d6838383613bda565b6135e1600082613120565b6001600360008573ffffffffffffffffffffffffffffffffffffffff1673ffffffffffffffffffffffffffffffffffffffff16815260200190815260200160002060008282546136319190615720565b925050819055506001600360008473ffffffffffffffffffffffffffffffffffffffff1673ffffffffffffffffffffffffffffffffffffffff1681526020019081526020016000206000828254613688919061563f565b92505081905550816002600083815260200190815260200160002060006101000a81548173ffffffffffffffffffffffffffffffffffffffff021916908373ffffffffffffffffffffffffffffffffffffffff160217905550808273ffffffffffffffffffffffffffffffffffffffff168473ffffffffffffffffffffffffffffffffffffffff167fddf252ad1be2c89b69c2b068fc378daa952ba7f163c4a11628f55a4df523b3ef60405160405180910390a4505050565b600061374c82611a05565b905061375a81600084613bda565b613765600083613120565b6001600360008373ffffffffffffffffffffffffffffffffffffffff1673ffffffffffffffffffffffffffffffffffffffff16815260200190815260200160002060008282546137b59190615720565b925050819055506002600083815260200190815260200160002060006101000a81549073ffffffffffffffffffffffffffffffffffffffff021916905581600073ffffffffffffffffffffffffffffffffffffffff168273ffffffffffffffffffffffffffffffffffffffff167fddf252ad1be2c89b69c2b068fc378daa952ba7f163c4a11628f55a4df523b3ef60405160405180910390a45050565b6000600660009054906101000a900473ffffffffffffffffffffffffffffffffffffffff16905081600660006101000a81548173ffffffffffffffffffffffffffffffffffffffff021916908373ffffffffffffffffffffffffffffffffffffffff1602179055508173ffffffffffffffffffffffffffffffffffffffff168173ffffffffffffffffffffffffffffffffffffffff167f8be0079c531659141344cd1fd0a4f28419497f9722a3daafe3b4186f6b6457e060405160405180910390a35050565b6139238484846134e5565b61392f84848484613bdf565b61396e576040517f08c379a000000000000000000000000000000000000000000000000000000000815260040161396590615162565b60405180910390fd5b50505050565b6001816000016000828254019250508190555050565b600081600001549050919050565b600073ffffffffffffffffffffffffffffffffffffffff168273ffffffffffffffffffffffffffffffffffffffff161415613a08576040517f08c379a00000000000000000000000000000000000000000000000000000000081526004016139ff906152c2565b60405180910390fd5b613a11816130ac565b15613a51576040517f08c379a0000000000000000000000000000000000000000000000000000000008152600401613a48906151a2565b60405180910390fd5b613a5d60008383613bda565b6001600360008473ffffffffffffffffffffffffffffffffffffffff1673ffffffffffffffffffffffffffffffffffffffff1681526020019081526020016000206000828254613aad919061563f565b92505081905550816002600083815260200190815260200160002060006101000a81548173ffffffffffffffffffffffffffffffffffffffff021916908373ffffffffffffffffffffffffffffffffffffffff160217905550808273ffffffffffffffffffffffffffffffffffffffff16600073ffffffffffffffffffffffffffffffffffffffff167fddf252ad1be2c89b69c2b068fc378daa952ba7f163c4a11628f55a4df523b3ef60405160405180910390a45050565b613b6f826130ac565b613bae576040517f08c379a0000000000000000000000000000000000000000000000000000000008152600401613ba590615202565b60405180910390fd5b80601060008481526020019081526020016000209080519060200190613bd5929190613eb6565b505050565b505050565b6000613c008473ffffffffffffffffffffffffffffffffffffffff16613d76565b15613d69578373ffffffffffffffffffffffffffffffffffffffff1663150b7a02613c29613118565b8786866040518563ffffffff1660e01b8152600401613c4b9493929190615055565b602060405180830381600087803b158015613c6557600080fd5b505af1925050508015613c9657506040513d601f19601f82011682018060405250810190613c939190614367565b60015b613d19573d8060008114613cc6576040519150601f19603f3d011682016040523d82523d6000602084013e613ccb565b606091505b50600081511415613d11576040517f08c379a0000000000000000000000000000000000000000000000000000000008152600401613d0890615162565b60405180910390fd5b805181602001fd5b63150b7a0260e01b7bffffffffffffffffffffffffffffffffffffffffffffffffffffffff1916817bffffffffffffffffffffffffffffffffffffffffffffffffffffffff191614915050613d6e565b600190505b949350505050565b600080823b905060008111915050919050565b5080546000825560020290600052602060002090810190613daa9190613fa7565b50565b828054828255906000526020600020906002028101928215613e655760005260206000209160020282015b82811115613e645782826000820160009054906101000a900473ffffffffffffffffffffffffffffffffffffffff168160000160006101000a81548173ffffffffffffffffffffffffffffffffffffffff021916908373ffffffffffffffffffffffffffffffffffffffff16021790555060018201548160010155505091600201919060020190613dd8565b5b509050613e729190613fa7565b5090565b508054613e829061580a565b6000825580601f10613e945750613eb3565b601f016020900490600052602060002090810190613eb29190613fed565b5b50565b828054613ec29061580a565b90600052602060002090601f016020900481019282613ee45760008555613f2b565b82601f10613efd57805160ff1916838001178555613f2b565b82800160010185558215613f2b579182015b82811115613f2a578251825591602001919060010190613f0f565b5b509050613f389190613fed565b5090565b6040518060e0016040528060008152602001600073ffffffffffffffffffffffffffffffffffffffff1681526020016000815260200160008152602001600015158152602001600073ffffffffffffffffffffffffffffffffffffffff168152602001606081525090565b5b80821115613fe957600080820160006101000a81549073ffffffffffffffffffffffffffffffffffffffff0219169055600182016000905550600201613fa8565b5090565b5b80821115614006576000816000905550600101613fee565b5090565b600061401d614018846154f1565b6154c0565b90508281526020810184848401111561403557600080fd5b6140408482856157c8565b509392505050565b600061405b61405684615521565b6154c0565b90508281526020810184848401111561407357600080fd5b61407e8482856157c8565b509392505050565b60008135905061409581615952565b92915050565b6000813590506140aa81615969565b92915050565b6000813590506140bf81615980565b92915050565b6000815190506140d481615980565b92915050565b600082601f8301126140eb57600080fd5b81356140fb84826020860161400a565b91505092915050565b600082601f83011261411557600080fd5b8135614125848260208601614048565b91505092915050565b60008135905061413d81615997565b92915050565b60006020828403121561415557600080fd5b600061416384828501614086565b91505092915050565b6000806040838503121561417f57600080fd5b600061418d85828601614086565b925050602061419e85828601614086565b9150509250929050565b6000806000606084860312156141bd57600080fd5b60006141cb86828701614086565b93505060206141dc86828701614086565b92505060406141ed8682870161412e565b9150509250925092565b6000806000806080858703121561420d57600080fd5b600061421b87828801614086565b945050602061422c87828801614086565b935050604061423d8782880161412e565b925050606085013567ffffffffffffffff81111561425a57600080fd5b614266878288016140da565b91505092959194509250565b6000806040838503121561428557600080fd5b600061429385828601614086565b92505060206142a48582860161409b565b9150509250929050565b600080604083850312156142c157600080fd5b60006142cf85828601614086565b925050602083013567ffffffffffffffff8111156142ec57600080fd5b6142f885828601614104565b9150509250929050565b6000806040838503121561431557600080fd5b600061432385828601614086565b92505060206143348582860161412e565b9150509250929050565b60006020828403121561435057600080fd5b600061435e848285016140b0565b91505092915050565b60006020828403121561437957600080fd5b6000614387848285016140c5565b91505092915050565b6000602082840312156143a257600080fd5b600082013567ffffffffffffffff8111156143bc57600080fd5b6143c884828501614104565b91505092915050565b6000602082840312156143e357600080fd5b60006143f18482850161412e565b91505092915050565b6000806040838503121561440d57600080fd5b600061441b8582860161412e565b925050602061442c8582860161412e565b9150509250929050565b60006144428383614e9e565b60408301905092915050565b600061445a8383614ecd565b905092915050565b600061446e8383615005565b60208301905092915050565b61448381615754565b82525050565b61449281615754565b82525050565b60006144a382615581565b6144ad81856155df565b93506144b883615551565b8060005b838110156144e95781516144d08882614436565b97506144db836155b8565b9250506001810190506144bc565b5085935050505092915050565b60006145018261558c565b61450b81856155f0565b93508360208202850161451d85615561565b8060005b85811015614559578484038952815161453a858261444e565b9450614545836155c5565b925060208a01995050600181019050614521565b50829750879550505050505092915050565b600061457682615597565b6145808185615601565b935061458b83615571565b8060005b838110156145bc5781516145a38882614462565b97506145ae836155d2565b92505060018101905061458f565b5085935050505092915050565b6145d281615766565b82525050565b6145e181615766565b82525050565b60006145f2826155a2565b6145fc8185615612565b935061460c8185602086016157d7565b61461581615941565b840191505092915050565b600061462b826155ad565b6146358185615623565b93506146458185602086016157d7565b61464e81615941565b840191505092915050565b6000614664826155ad565b61466e8185615634565b935061467e8185602086016157d7565b80840191505092915050565b6000614697601f83615623565b91507f596f752068617665206f66666572656420666f72207468697320746f6b656e006000830152602082019050919050565b60006146d7601983615623565b91507f596f757220746f6b656e20616c726561647920657869737473000000000000006000830152602082019050919050565b6000614717603283615623565b91507f4552433732313a207472616e7366657220746f206e6f6e20455243373231526560008301527f63656976657220696d706c656d656e74657200000000000000000000000000006020830152604082019050919050565b600061477d602683615623565b91507f4f776e61626c653a206e6577206f776e657220697320746865207a65726f206160008301527f64647265737300000000000000000000000000000000000000000000000000006020830152604082019050919050565b60006147e3601c83615623565b91507f4552433732313a20746f6b656e20616c7265616479206d696e746564000000006000830152602082019050919050565b6000614823602483615623565b91507f4552433732313a207472616e7366657220746f20746865207a65726f2061646460008301527f72657373000000000000000000000000000000000000000000000000000000006020830152604082019050919050565b6000614889601983615623565b91507f4552433732313a20617070726f766520746f2063616c6c6572000000000000006000830152602082019050919050565b60006148c9601483615623565b91507f546f6b656e20646f6573206e6f742065786973740000000000000000000000006000830152602082019050919050565b6000614909602c83615623565b91507f4552433732313a206f70657261746f7220717565727920666f72206e6f6e657860008301527f697374656e7420746f6b656e00000000000000000000000000000000000000006020830152604082019050919050565b600061496f603883615623565b91507f4552433732313a20617070726f76652063616c6c6572206973206e6f74206f7760008301527f6e6572206e6f7220617070726f76656420666f7220616c6c00000000000000006020830152604082019050919050565b60006149d5602383615623565b91507f596f752063616e206e6f74206f6666657220746f20796f7572206f776e20746f60008301527f6b656e00000000000000000000000000000000000000000000000000000000006020830152604082019050919050565b6000614a3b602a83615623565b91507f4552433732313a2062616c616e636520717565727920666f7220746865207a6560008301527f726f2061646472657373000000000000000000000000000000000000000000006020830152604082019050919050565b6000614aa1602983615623565b91507f4552433732313a206f776e657220717565727920666f72206e6f6e657869737460008301527f656e7420746f6b656e00000000000000000000000000000000000000000000006020830152604082019050919050565b6000614b07602083615623565b91507f4552433732313a206d696e7420746f20746865207a65726f20616464726573736000830152602082019050919050565b6000614b47602c83615623565b91507f4552433732313a20617070726f76656420717565727920666f72206e6f6e657860008301527f697374656e7420746f6b656e00000000000000000000000000000000000000006020830152604082019050919050565b6000614bad602083615623565b91507f4f776e61626c653a2063616c6c6572206973206e6f7420746865206f776e65726000830152602082019050919050565b6000614bed601883615623565b91507f546f6b656e20697320616c7265616479206f6e2073616c6500000000000000006000830152602082019050919050565b6000614c2d602983615623565b91507f4552433732313a207472616e73666572206f6620746f6b656e2074686174206960008301527f73206e6f74206f776e00000000000000000000000000000000000000000000006020830152604082019050919050565b6000614c93602583615623565b91507f546f6b656e206973206e6f7420666f722073616c6520696e207468697320617560008301527f6374696f6e0000000000000000000000000000000000000000000000000000006020830152604082019050919050565b6000614cf9601683615623565b91507f596f7520617265206e6f7420617574686f72697a6564000000000000000000006000830152602082019050919050565b6000614d39602183615623565b91507f4552433732313a20617070726f76616c20746f2063757272656e74206f776e6560008301527f72000000000000000000000000000000000000000000000000000000000000006020830152604082019050919050565b6000614d9f603183615623565b91507f4552433732313a207472616e736665722063616c6c6572206973206e6f74206f60008301527f776e6572206e6f7220617070726f7665640000000000000000000000000000006020830152604082019050919050565b6000614e05601483615623565b91507f546f6b656e206973206e6f74206f6e2073616c650000000000000000000000006000830152602082019050919050565b6000614e45602383615623565b91507f596f757220746f6b656e20686173206e6f74206265656e206f6666657265642060008301527f79657400000000000000000000000000000000000000000000000000000000006020830152604082019050919050565b604082016000820151614eb4600085018261447a565b506020820151614ec76020850182615005565b50505050565b600060e083016000830151614ee56000860182615005565b506020830151614ef8602086018261447a565b506040830151614f0b6040860182615005565b506060830151614f1e6060860182615005565b506080830151614f3160808601826145c9565b5060a0830151614f4460a086018261447a565b5060c083015184820360c0860152614f5c8282614498565b9150508091505092915050565b600060e083016000830151614f816000860182615005565b506020830151614f94602086018261447a565b506040830151614fa76040860182615005565b506060830151614fba6060860182615005565b506080830151614fcd60808601826145c9565b5060a0830151614fe060a086018261447a565b5060c083015184820360c0860152614ff88282614498565b9150508091505092915050565b61500e816157be565b82525050565b61501d816157be565b82525050565b600061502f8284614659565b915081905092915050565b600060208201905061504f6000830184614489565b92915050565b600060808201905061506a6000830187614489565b6150776020830186614489565b6150846040830185615014565b818103606083015261509681846145e7565b905095945050505050565b600060208201905081810360008301526150bb81846144f6565b905092915050565b600060208201905081810360008301526150dd818461456b565b905092915050565b60006020820190506150fa60008301846145d8565b92915050565b6000602082019050818103600083015261511a8184614620565b905092915050565b6000602082019050818103600083015261513b8161468a565b9050919050565b6000602082019050818103600083015261515b816146ca565b9050919050565b6000602082019050818103600083015261517b8161470a565b9050919050565b6000602082019050818103600083015261519b81614770565b9050919050565b600060208201905081810360008301526151bb816147d6565b9050919050565b600060208201905081810360008301526151db81614816565b9050919050565b600060208201905081810360008301526151fb8161487c565b9050919050565b6000602082019050818103600083015261521b816148bc565b9050919050565b6000602082019050818103600083015261523b816148fc565b9050919050565b6000602082019050818103600083015261525b81614962565b9050919050565b6000602082019050818103600083015261527b816149c8565b9050919050565b6000602082019050818103600083015261529b81614a2e565b9050919050565b600060208201905081810360008301526152bb81614a94565b9050919050565b600060208201905081810360008301526152db81614afa565b9050919050565b600060208201905081810360008301526152fb81614b3a565b9050919050565b6000602082019050818103600083015261531b81614ba0565b9050919050565b6000602082019050818103600083015261533b81614be0565b9050919050565b6000602082019050818103600083015261535b81614c20565b9050919050565b6000602082019050818103600083015261537b81614c86565b9050919050565b6000602082019050818103600083015261539b81614cec565b9050919050565b600060208201905081810360008301526153bb81614d2c565b9050919050565b600060208201905081810360008301526153db81614d92565b9050919050565b600060208201905081810360008301526153fb81614df8565b9050919050565b6000602082019050818103600083015261541b81614e38565b9050919050565b6000602082019050818103600083015261543c8184614f69565b905092915050565b60006020820190506154596000830184615014565b92915050565b600060c0820190506154746000830189615014565b6154816020830188614489565b61548e6040830187615014565b61549b6060830186615014565b6154a860808301856145d8565b6154b560a0830184614489565b979650505050505050565b6000604051905081810181811067ffffffffffffffff821117156154e7576154e6615912565b5b8060405250919050565b600067ffffffffffffffff82111561550c5761550b615912565b5b601f19601f8301169050602081019050919050565b600067ffffffffffffffff82111561553c5761553b615912565b5b601f19601f8301169050602081019050919050565b6000819050602082019050919050565b6000819050602082019050919050565b6000819050602082019050919050565b600081519050919050565b600081519050919050565b600081519050919050565b600081519050919050565b600081519050919050565b6000602082019050919050565b6000602082019050919050565b6000602082019050919050565b600082825260208201905092915050565b600082825260208201905092915050565b600082825260208201905092915050565b600082825260208201905092915050565b600082825260208201905092915050565b600081905092915050565b600061564a826157be565b9150615655836157be565b9250827fffffffffffffffffffffffffffffffffffffffffffffffffffffffffffffffff0382111561568a57615689615885565b5b828201905092915050565b60006156a0826157be565b91506156ab836157be565b9250826156bb576156ba6158b4565b5b828204905092915050565b60006156d1826157be565b91506156dc836157be565b9250817fffffffffffffffffffffffffffffffffffffffffffffffffffffffffffffffff048311821515161561571557615714615885565b5b828202905092915050565b600061572b826157be565b9150615736836157be565b92508282101561574957615748615885565b5b828203905092915050565b600061575f8261579e565b9050919050565b60008115159050919050565b60007fffffffff0000000000000000000000000000000000000000000000000000000082169050919050565b600073ffffffffffffffffffffffffffffffffffffffff82169050919050565b6000819050919050565b82818337600083830152505050565b60005b838110156157f55780820151818401526020810190506157da565b83811115615804576000848401525b50505050565b6000600282049050600182168061582257607f821691505b60208210811415615836576158356158e3565b5b50919050565b6000615847826157be565b91507fffffffffffffffffffffffffffffffffffffffffffffffffffffffffffffffff82141561587a57615879615885565b5b600182019050919050565b7f4e487b7100000000000000000000000000000000000000000000000000000000600052601160045260246000fd5b7f4e487b7100000000000000000000000000000000000000000000000000000000600052601260045260246000fd5b7f4e487b7100000000000000000000000000000000000000000000000000000000600052602260045260246000fd5b7f4e487b7100000000000000000000000000000000000000000000000000000000600052604160045260246000fd5b6000601f19601f8301169050919050565b61595b81615754565b811461596657600080fd5b50565b61597281615766565b811461597d57600080fd5b50565b61598981615772565b811461599457600080fd5b50565b6159a0816157be565b81146159ab57600080fd5b5056fea2646970667358221220e34587ecb36714d58920bbc1b665a78995c015e767421ea26b4762bcc5e8ea0264736f6c63430008000033",
  "linkReferences": {},
  "deployedLinkReferences": {}
}